{
  "contractName": "SolnSquareVerifier",
  "abi": [
    {
      "inputs": [
        {
          "internalType": "address",
          "name": "verifierAddress",
          "type": "address"
        }
      ],
      "stateMutability": "nonpayable",
      "type": "constructor"
    },
    {
      "anonymous": false,
      "inputs": [
        {
          "indexed": true,
          "internalType": "address",
          "name": "owner",
          "type": "address"
        },
        {
          "indexed": true,
          "internalType": "address",
          "name": "approved",
          "type": "address"
        },
        {
          "indexed": true,
          "internalType": "uint256",
          "name": "tokenId",
          "type": "uint256"
        }
      ],
      "name": "Approval",
      "type": "event"
    },
    {
      "anonymous": false,
      "inputs": [
        {
          "indexed": true,
          "internalType": "address",
          "name": "owner",
          "type": "address"
        },
        {
          "indexed": true,
          "internalType": "address",
          "name": "operator",
          "type": "address"
        },
        {
          "indexed": false,
          "internalType": "bool",
          "name": "approved",
          "type": "bool"
        }
      ],
      "name": "ApprovalForAll",
      "type": "event"
    },
    {
      "anonymous": false,
      "inputs": [
        {
          "indexed": false,
          "internalType": "address",
          "name": "newOwner",
          "type": "address"
        }
      ],
      "name": "OwnershipTransfered",
      "type": "event"
    },
    {
      "anonymous": false,
      "inputs": [
        {
          "indexed": false,
          "internalType": "address",
          "name": "account",
          "type": "address"
        }
      ],
      "name": "Paused",
      "type": "event"
    },
    {
      "anonymous": false,
      "inputs": [
        {
          "indexed": false,
          "internalType": "uint256",
          "name": "index",
          "type": "uint256"
        },
        {
          "indexed": false,
          "internalType": "address",
          "name": "owner",
          "type": "address"
        }
      ],
      "name": "SolutionAdded",
      "type": "event"
    },
    {
      "anonymous": false,
      "inputs": [
        {
          "indexed": true,
          "internalType": "address",
          "name": "from",
          "type": "address"
        },
        {
          "indexed": true,
          "internalType": "address",
          "name": "to",
          "type": "address"
        },
        {
          "indexed": true,
          "internalType": "uint256",
          "name": "tokenId",
          "type": "uint256"
        }
      ],
      "name": "Transfer",
      "type": "event"
    },
    {
      "anonymous": false,
      "inputs": [
        {
          "indexed": false,
          "internalType": "address",
          "name": "account",
          "type": "address"
        }
      ],
      "name": "Unpaused",
      "type": "event"
    },
    {
      "inputs": [
        {
          "internalType": "bytes32",
          "name": "_myid",
          "type": "bytes32"
        },
        {
          "internalType": "string",
          "name": "_result",
          "type": "string"
        }
      ],
      "name": "__callback",
      "outputs": [],
      "stateMutability": "pure",
      "type": "function"
    },
    {
      "inputs": [
        {
          "internalType": "bytes32",
          "name": "_myid",
          "type": "bytes32"
        },
        {
          "internalType": "string",
          "name": "_result",
          "type": "string"
        },
        {
          "internalType": "bytes",
          "name": "_proof",
          "type": "bytes"
        }
      ],
      "name": "__callback",
      "outputs": [],
      "stateMutability": "pure",
      "type": "function"
    },
    {
      "inputs": [
        {
          "internalType": "address",
          "name": "to",
          "type": "address"
        },
        {
          "internalType": "uint256",
          "name": "tokenId",
          "type": "uint256"
        }
      ],
      "name": "approve",
      "outputs": [],
      "stateMutability": "nonpayable",
      "type": "function"
    },
    {
      "inputs": [
        {
          "internalType": "address",
          "name": "owner",
          "type": "address"
        }
      ],
      "name": "balanceOf",
      "outputs": [
        {
          "internalType": "uint256",
          "name": "",
          "type": "uint256"
        }
      ],
      "stateMutability": "view",
      "type": "function"
    },
    {
      "inputs": [
        {
          "internalType": "uint256",
          "name": "tokenId",
          "type": "uint256"
        }
      ],
      "name": "getApproved",
      "outputs": [
        {
          "internalType": "address",
          "name": "",
          "type": "address"
        }
      ],
      "stateMutability": "view",
      "type": "function"
    },
    {
      "inputs": [],
      "name": "getBaseTokenURI",
      "outputs": [
        {
          "internalType": "string",
          "name": "",
          "type": "string"
        }
      ],
      "stateMutability": "view",
      "type": "function"
    },
    {
      "inputs": [],
      "name": "getName",
      "outputs": [
        {
          "internalType": "string",
          "name": "",
          "type": "string"
        }
      ],
      "stateMutability": "view",
      "type": "function"
    },
    {
      "inputs": [],
      "name": "getOwner",
      "outputs": [
        {
          "internalType": "address",
          "name": "",
          "type": "address"
        }
      ],
      "stateMutability": "view",
      "type": "function"
    },
    {
      "inputs": [],
      "name": "getSymbol",
      "outputs": [
        {
          "internalType": "string",
          "name": "",
          "type": "string"
        }
      ],
      "stateMutability": "view",
      "type": "function"
    },
    {
      "inputs": [
        {
          "internalType": "uint256",
          "name": "tokenId",
          "type": "uint256"
        }
      ],
      "name": "getTokenURI",
      "outputs": [
        {
          "internalType": "string",
          "name": "",
          "type": "string"
        }
      ],
      "stateMutability": "view",
      "type": "function"
    },
    {
      "inputs": [
        {
          "internalType": "address",
          "name": "owner",
          "type": "address"
        },
        {
          "internalType": "address",
          "name": "operator",
          "type": "address"
        }
      ],
      "name": "isApprovedForAll",
      "outputs": [
        {
          "internalType": "bool",
          "name": "",
          "type": "bool"
        }
      ],
      "stateMutability": "view",
      "type": "function"
    },
    {
      "inputs": [
        {
          "internalType": "address",
          "name": "to",
          "type": "address"
        },
        {
          "internalType": "uint256",
          "name": "tokenId",
          "type": "uint256"
        }
      ],
      "name": "mint",
      "outputs": [],
      "stateMutability": "nonpayable",
      "type": "function"
    },
    {
      "inputs": [
        {
          "internalType": "uint256",
          "name": "tokenId",
          "type": "uint256"
        }
      ],
      "name": "ownerOf",
      "outputs": [
        {
          "internalType": "address",
          "name": "",
          "type": "address"
        }
      ],
      "stateMutability": "view",
      "type": "function"
    },
    {
      "inputs": [],
      "name": "paused",
      "outputs": [
        {
          "internalType": "bool",
          "name": "",
          "type": "bool"
        }
      ],
      "stateMutability": "view",
      "type": "function"
    },
    {
      "inputs": [
        {
          "internalType": "address",
          "name": "from",
          "type": "address"
        },
        {
          "internalType": "address",
          "name": "to",
          "type": "address"
        },
        {
          "internalType": "uint256",
          "name": "tokenId",
          "type": "uint256"
        }
      ],
      "name": "safeTransferFrom",
      "outputs": [],
      "stateMutability": "nonpayable",
      "type": "function"
    },
    {
      "inputs": [
        {
          "internalType": "address",
          "name": "from",
          "type": "address"
        },
        {
          "internalType": "address",
          "name": "to",
          "type": "address"
        },
        {
          "internalType": "uint256",
          "name": "tokenId",
          "type": "uint256"
        },
        {
          "internalType": "bytes",
          "name": "_data",
          "type": "bytes"
        }
      ],
      "name": "safeTransferFrom",
      "outputs": [],
      "stateMutability": "nonpayable",
      "type": "function"
    },
    {
      "inputs": [
        {
          "internalType": "address",
          "name": "to",
          "type": "address"
        },
        {
          "internalType": "bool",
          "name": "approved",
          "type": "bool"
        }
      ],
      "name": "setApprovalForAll",
      "outputs": [],
      "stateMutability": "nonpayable",
      "type": "function"
    },
    {
      "inputs": [
        {
          "internalType": "bool",
          "name": "paused",
          "type": "bool"
        }
      ],
      "name": "setPaused",
      "outputs": [],
      "stateMutability": "nonpayable",
      "type": "function"
    },
    {
      "inputs": [
        {
          "internalType": "bytes4",
          "name": "interfaceId",
          "type": "bytes4"
        }
      ],
      "name": "supportsInterface",
      "outputs": [
        {
          "internalType": "bool",
          "name": "",
          "type": "bool"
        }
      ],
      "stateMutability": "view",
      "type": "function"
    },
    {
      "inputs": [
        {
          "internalType": "uint256",
          "name": "index",
          "type": "uint256"
        }
      ],
      "name": "tokenByIndex",
      "outputs": [
        {
          "internalType": "uint256",
          "name": "",
          "type": "uint256"
        }
      ],
      "stateMutability": "view",
      "type": "function"
    },
    {
      "inputs": [
        {
          "internalType": "address",
          "name": "owner",
          "type": "address"
        },
        {
          "internalType": "uint256",
          "name": "index",
          "type": "uint256"
        }
      ],
      "name": "tokenOfOwnerByIndex",
      "outputs": [
        {
          "internalType": "uint256",
          "name": "",
          "type": "uint256"
        }
      ],
      "stateMutability": "view",
      "type": "function"
    },
    {
      "inputs": [],
      "name": "totalSupply",
      "outputs": [
        {
          "internalType": "uint256",
          "name": "",
          "type": "uint256"
        }
      ],
      "stateMutability": "view",
      "type": "function"
    },
    {
      "inputs": [
        {
          "internalType": "address",
          "name": "from",
          "type": "address"
        },
        {
          "internalType": "address",
          "name": "to",
          "type": "address"
        },
        {
          "internalType": "uint256",
          "name": "tokenId",
          "type": "uint256"
        }
      ],
      "name": "transferFrom",
      "outputs": [],
      "stateMutability": "nonpayable",
      "type": "function"
    },
    {
      "inputs": [
        {
          "internalType": "address",
          "name": "newOwner",
          "type": "address"
        }
      ],
      "name": "transferOwnership",
      "outputs": [],
      "stateMutability": "nonpayable",
      "type": "function"
    },
    {
      "inputs": [
        {
          "internalType": "uint256",
          "name": "index",
          "type": "uint256"
        },
        {
          "internalType": "address",
          "name": "owner",
          "type": "address"
        }
      ],
      "name": "addSolution",
      "outputs": [],
      "stateMutability": "nonpayable",
      "type": "function"
    },
    {
      "inputs": [
        {
          "internalType": "uint256",
          "name": "tokenId",
          "type": "uint256"
        },
        {
          "components": [
            {
              "components": [
                {
                  "internalType": "uint256",
                  "name": "X",
                  "type": "uint256"
                },
                {
                  "internalType": "uint256",
                  "name": "Y",
                  "type": "uint256"
                }
              ],
              "internalType": "struct Pairing.G1Point",
              "name": "a",
              "type": "tuple"
            },
            {
              "components": [
                {
                  "internalType": "uint256[2]",
                  "name": "X",
                  "type": "uint256[2]"
                },
                {
                  "internalType": "uint256[2]",
                  "name": "Y",
                  "type": "uint256[2]"
                }
              ],
              "internalType": "struct Pairing.G2Point",
              "name": "b",
              "type": "tuple"
            },
            {
              "components": [
                {
                  "internalType": "uint256",
                  "name": "X",
                  "type": "uint256"
                },
                {
                  "internalType": "uint256",
                  "name": "Y",
                  "type": "uint256"
                }
              ],
              "internalType": "struct Pairing.G1Point",
              "name": "c",
              "type": "tuple"
            }
          ],
          "internalType": "struct SquareVerifier.Proof",
          "name": "proof",
          "type": "tuple"
        },
        {
          "internalType": "uint256[2]",
          "name": "input",
          "type": "uint256[2]"
        }
      ],
      "name": "mintNFT",
      "outputs": [],
      "stateMutability": "nonpayable",
      "type": "function"
    }
  ],
  "bytecode": "0x60806040523480156200001157600080fd5b5060405162003fdf38038062003fdf8339818101604052810190620000379190620003d0565b6040518060400160405280600981526020017f467265766f436f696e00000000000000000000000000000000000000000000008152506040518060400160405280600381526020017f46524300000000000000000000000000000000000000000000000000000000008152506040518060600160405280603f815260200162003fa0603f913960008060006101000a81548160ff02191690831515021790555033600060016101000a81548173ffffffffffffffffffffffffffffffffffffffff021916908373ffffffffffffffffffffffffffffffffffffffff160217905550620001306301ffc9a760e01b6200026960201b60201c565b60008060156101000a81548160ff021916908315150217905550620001626380ac58cd60e01b6200026960201b60201c565b6200017a63780e9d6360e01b6200026960201b60201c565b82600f90805190602001906200019292919062000309565b508160109080519060200190620001ab92919062000309565b508060119080519060200190620001c492919062000309565b50620001dd635b5e139f60e01b6200026960201b60201c565b50505033601360006101000a81548173ffffffffffffffffffffffffffffffffffffffff021916908373ffffffffffffffffffffffffffffffffffffffff16021790555080601460006101000a81548173ffffffffffffffffffffffffffffffffffffffff021916908373ffffffffffffffffffffffffffffffffffffffff16021790555050620004ba565b63ffffffff60e01b817bffffffffffffffffffffffffffffffffffffffffffffffffffffffff191614156200029d57600080fd5b6001806000837bffffffffffffffffffffffffffffffffffffffffffffffffffffffff19167bffffffffffffffffffffffffffffffffffffffffffffffffffffffff1916815260200190815260200160002060006101000a81548160ff02191690831515021790555050565b828054620003179062000436565b90600052602060002090601f0160209004810192826200033b576000855562000387565b82601f106200035657805160ff191683800117855562000387565b8280016001018555821562000387579182015b828111156200038657825182559160200191906001019062000369565b5b5090506200039691906200039a565b5090565b5b80821115620003b55760008160009055506001016200039b565b5090565b600081519050620003ca81620004a0565b92915050565b600060208284031215620003e957620003e86200049b565b5b6000620003f984828501620003b9565b91505092915050565b60006200040f8262000416565b9050919050565b600073ffffffffffffffffffffffffffffffffffffffff82169050919050565b600060028204905060018216806200044f57607f821691505b602082108114156200046657620004656200046c565b5b50919050565b7f4e487b7100000000000000000000000000000000000000000000000000000000600052602260045260246000fd5b600080fd5b620004ab8162000402565b8114620004b757600080fd5b50565b613ad680620004ca6000396000f3fe608060405234801561001057600080fd5b506004361061018e5760003560e01c806340c10f19116100de578063893d20e811610097578063bdc32be011610071578063bdc32be014610491578063ccd0ef69146104af578063e985e9c5146104cb578063f2fde38b146104fb5761018e565b8063893d20e81461043b578063a22cb46514610459578063b88d4fde146104755761018e565b806340c10f191461035557806342842e0e146103715780634f6ccce71461038d5780635c975abb146103bd5780636352211e146103db57806370a082311461040b5761018e565b806318160ddd1161014b57806327dc297e1161012557806327dc297e146102bd5780632f745c59146102d957806338bbfa50146103095780633bb3a24d146103255761018e565b806318160ddd1461026757806323b872dd1461028557806324ba2bde146102a15761018e565b806301ffc9a714610193578063081812fc146101c3578063095ea7b3146101f3578063150704011461020f57806316c38b3c1461022d57806317d7de7c14610249575b600080fd5b6101ad60048036038101906101a89190612d0f565b610517565b6040516101ba9190613207565b60405180910390f35b6101dd60048036038101906101d89190612d69565b61057f565b6040516101ea91906131a0565b60405180910390f35b61020d60048036038101906102089190612b8e565b6105bc565b005b61021761082e565b6040516102249190613222565b60405180910390f35b61024760048036038101906102429190612bce565b6108c0565b005b610251610966565b60405161025e9190613222565b60405180910390f35b61026f6109f8565b60405161027c919061336f565b60405180910390f35b61029f600480360381019061029a9190612a78565b610a05565b005b6102bb60048036038101906102b69190612dd6565b610a28565b005b6102d760048036038101906102d29190612c28565b610ce0565b005b6102f360048036038101906102ee9190612b8e565b610d3c565b604051610300919061336f565b60405180910390f35b610323600480360381019061031e9190612c84565b610db6565b005b61033f600480360381019061033a9190612d69565b610dbb565b60405161034c9190613222565b60405180910390f35b61036f600480360381019061036a9190612b8e565b610e72565b005b61038b60048036038101906103869190612a78565b610f61565b005b6103a760048036038101906103a29190612d69565b610f81565b6040516103b4919061336f565b60405180910390f35b6103c5610fbc565b6040516103d29190613207565b60405180910390f35b6103f560048036038101906103f09190612d69565b610fd2565b60405161040291906131a0565b60405180910390f35b61042560048036038101906104209190612a0b565b61100f565b604051610432919061336f565b60405180910390f35b610443611064565b60405161045091906131a0565b60405180910390f35b610473600480360381019061046e9190612b4e565b61108d565b005b61048f600480360381019061048a9190612acb565b6111c3565b005b6104996111e9565b6040516104a69190613222565b60405180910390f35b6104c960048036038101906104c49190612d96565b61127b565b005b6104e560048036038101906104e09190612a38565b6113cf565b6040516104f29190613207565b60405180910390f35b61051560048036038101906105109190612a0b565b611463565b005b600060016000837bffffffffffffffffffffffffffffffffffffffffffffffffffffffff19167bffffffffffffffffffffffffffffffffffffffffffffffffffffffff1916815260200190815260200160002060009054906101000a900460ff169050919050565b60006003600083815260200190815260200160002060009054906101000a900473ffffffffffffffffffffffffffffffffffffffff169050919050565b8173ffffffffffffffffffffffffffffffffffffffff166002600083815260200190815260200160002060009054906101000a900473ffffffffffffffffffffffffffffffffffffffff1673ffffffffffffffffffffffffffffffffffffffff16141561065e576040517f08c379a000000000000000000000000000000000000000000000000000000000815260040161065590613264565b60405180910390fd5b6002600082815260200190815260200160002060009054906101000a900473ffffffffffffffffffffffffffffffffffffffff1673ffffffffffffffffffffffffffffffffffffffff163373ffffffffffffffffffffffffffffffffffffffff16148061070b5750600115156107076002600084815260200190815260200160002060009054906101000a900473ffffffffffffffffffffffffffffffffffffffff16846113cf565b1515145b61074a576040517f08c379a000000000000000000000000000000000000000000000000000000000815260040161074190613324565b60405180910390fd5b816003600083815260200190815260200160002060006101000a81548173ffffffffffffffffffffffffffffffffffffffff021916908373ffffffffffffffffffffffffffffffffffffffff160217905550808273ffffffffffffffffffffffffffffffffffffffff166002600084815260200190815260200160002060009054906101000a900473ffffffffffffffffffffffffffffffffffffffff1673ffffffffffffffffffffffffffffffffffffffff167f8c5be1e5ebec7d5bd14f71427d1e84f3dd0314c0f7b2291e5b200ac8c7c3b92560405160405180910390a45050565b60606010805461083d90613680565b80601f016020809104026020016040519081016040528092919081815260200182805461086990613680565b80156108b65780601f1061088b576101008083540402835291602001916108b6565b820191906000526020600020905b81548152906001019060200180831161089957829003601f168201915b5050505050905090565b80600060156101000a81548160ff021916908315150217905550600060159054906101000a900460ff161561092b577f62e78cea01bee320cd4e420270b5ea74000d11b0c9f74754ebdbfc544b05a2583360405161091e91906131a0565b60405180910390a1610963565b7f5db9ee0a495bf2e6ff9c91a7834c1ba4fdd244a5e8aa4e537bd38aeae4b073aa3360405161095a91906131a0565b60405180910390a15b50565b6060600f805461097590613680565b80601f01602080910402602001604051908101604052809291908181526020018280546109a190613680565b80156109ee5780601f106109c3576101008083540402835291602001916109ee565b820191906000526020600020905b8154815290600101906020018083116109d157829003601f168201915b5050505050905090565b6000600880549050905090565b610a0f33826115de565b610a1857600080fd5b610a23838383611673565b505050565b60011515601460009054906101000a900473ffffffffffffffffffffffffffffffffffffffff1673ffffffffffffffffffffffffffffffffffffffff166343cd76fc84846040518363ffffffff1660e01b8152600401610a89929190613344565b60206040518083038186803b158015610aa157600080fd5b505afa158015610ab5573d6000803e3d6000fd5b505050506040513d601f19601f82011682018060405250810190610ad99190612bfb565b151514610ae557600080fd5b600073ffffffffffffffffffffffffffffffffffffffff166016600085815260200190815260200160002060010160009054906101000a900473ffffffffffffffffffffffffffffffffffffffff1673ffffffffffffffffffffffffffffffffffffffff1614610b5457600080fd5b7facf2f9f3ed322edd4ac9044518601c87c0dc010ece7bf472136744e2c60cfcba610b7d610966565b604051602001610b8d9190613189565b6040516020818303038152906040528051906020012014610bad57600080fd5b7f6e1e2cbab57b00259a9b293d4459bea521ca25677cf6988909cc0f516e6bdf2b610bd661082e565b604051602001610be69190613189565b6040516020818303038152906040528051906020012014610c0657600080fd5b610c10833361127b565b6000610c1a6109f8565b9050610c263385610e72565b600181610c3391906134db565b610c3b6109f8565b14610c4557600080fd5b6000610c5085610dbb565b90506000610c7e6040518060600160405280603f8152602001613a62603f9139610c7988611697565b6117fe565b905080604051602001610c919190613189565b6040516020818303038152906040528051906020012082604051602001610cb89190613189565b6040516020818303038152906040528051906020012014610cd857600080fd5b505050505050565b610d388282600067ffffffffffffffff811115610d0057610cff613848565b5b6040519080825280601f01601f191660200182016040528015610d325781602001600182028036833780820191505090505b50610db6565b5050565b6000610d478361100f565b8210610d5257600080fd5b600660008473ffffffffffffffffffffffffffffffffffffffff1673ffffffffffffffffffffffffffffffffffffffff1681526020019081526020016000208281548110610da357610da2613819565b5b9060005260206000200154905092915050565b505050565b6060610dc682611842565b610dcf57600080fd5b601260008381526020019081526020016000208054610ded90613680565b80601f0160208091040260200160405190810160405280929190818152602001828054610e1990613680565b8015610e665780601f10610e3b57610100808354040283529160200191610e66565b820191906000526020600020905b815481529060010190602001808311610e4957829003601f168201915b50505050509050919050565b600060019054906101000a900473ffffffffffffffffffffffffffffffffffffffff1673ffffffffffffffffffffffffffffffffffffffff163373ffffffffffffffffffffffffffffffffffffffff1614610f02576040517f08c379a0000000000000000000000000000000000000000000000000000000008152600401610ef990613304565b60405180910390fd5b610f0a610fbc565b15610f4a576040517f08c379a0000000000000000000000000000000000000000000000000000000008152600401610f41906132e4565b60405180910390fd5b610f5482826118b4565b610f5d816118d5565b5050565b610f7c838383604051806020016040528060008152506111c3565b505050565b6000610f8b6109f8565b8210610f9657600080fd5b60088281548110610faa57610fa9613819565b5b90600052602060002001549050919050565b60008060009054906101000a900460ff16905090565b60006002600083815260200190815260200160002060009054906101000a900473ffffffffffffffffffffffffffffffffffffffff169050919050565b600080600460008473ffffffffffffffffffffffffffffffffffffffff1673ffffffffffffffffffffffffffffffffffffffff168152602001908152602001600020905061105c816119ad565b915050919050565b60008060019054906101000a900473ffffffffffffffffffffffffffffffffffffffff16905090565b3373ffffffffffffffffffffffffffffffffffffffff168273ffffffffffffffffffffffffffffffffffffffff1614156110c657600080fd5b80600560003373ffffffffffffffffffffffffffffffffffffffff1673ffffffffffffffffffffffffffffffffffffffff16815260200190815260200160002060008473ffffffffffffffffffffffffffffffffffffffff1673ffffffffffffffffffffffffffffffffffffffff16815260200190815260200160002060006101000a81548160ff0219169083151502179055508173ffffffffffffffffffffffffffffffffffffffff163373ffffffffffffffffffffffffffffffffffffffff167f17307eab39ab6107e8899845ad3d59bd9653f200f220920489ca2b5937696c31836040516111b79190613207565b60405180910390a35050565b6111ce848484610a05565b6111da848484846119bb565b6111e357600080fd5b50505050565b6060601180546111f890613680565b80601f016020809104026020016040519081016040528092919081815260200182805461122490613680565b80156112715780601f1061124657610100808354040283529160200191611271565b820191906000526020600020905b81548152906001019060200180831161125457829003601f168201915b5050505050905090565b600060405180604001604052808481526020018373ffffffffffffffffffffffffffffffffffffffff16815250905060158190806001815401808255809150506001900390600052602060002090600202016000909190919091506000820151816000015560208201518160010160006101000a81548173ffffffffffffffffffffffffffffffffffffffff021916908373ffffffffffffffffffffffffffffffffffffffff160217905550505080601660008581526020019081526020016000206000820151816000015560208201518160010160006101000a81548173ffffffffffffffffffffffffffffffffffffffff021916908373ffffffffffffffffffffffffffffffffffffffff1602179055509050507f078793128cefb19aac38a33f9e5df39f67716907f6d747e8065545699e0b2b8d83836040516113c292919061338a565b60405180910390a1505050565b6000600560008473ffffffffffffffffffffffffffffffffffffffff1673ffffffffffffffffffffffffffffffffffffffff16815260200190815260200160002060008373ffffffffffffffffffffffffffffffffffffffff1673ffffffffffffffffffffffffffffffffffffffff16815260200190815260200160002060009054906101000a900460ff16905092915050565b600060019054906101000a900473ffffffffffffffffffffffffffffffffffffffff1673ffffffffffffffffffffffffffffffffffffffff163373ffffffffffffffffffffffffffffffffffffffff16146114f3576040517f08c379a00000000000000000000000000000000000000000000000000000000081526004016114ea90613304565b60405180910390fd5b600073ffffffffffffffffffffffffffffffffffffffff168173ffffffffffffffffffffffffffffffffffffffff161415611563576040517f08c379a000000000000000000000000000000000000000000000000000000000815260040161155a90613244565b60405180910390fd5b80600060016101000a81548173ffffffffffffffffffffffffffffffffffffffff021916908373ffffffffffffffffffffffffffffffffffffffff1602179055507f9736aeb40a8f30a5c076a9897428fdf7ec0e909c96dce63533664c9b5c835da6816040516115d391906131a0565b60405180910390a150565b6000806115ea83610fd2565b90508073ffffffffffffffffffffffffffffffffffffffff168473ffffffffffffffffffffffffffffffffffffffff16148061165957508373ffffffffffffffffffffffffffffffffffffffff166116418461057f565b73ffffffffffffffffffffffffffffffffffffffff16145b8061166a575061166981856113cf565b5b91505092915050565b61167e838383611ad2565b6116888382611d8b565b6116928282611f42565b505050565b606060008214156116df576040518060400160405280600181526020017f300000000000000000000000000000000000000000000000000000000000000081525090506117f9565b600082905060005b600082146117115780806116fa906136e3565b915050600a8261170a9190613531565b91506116e7565b60008167ffffffffffffffff81111561172d5761172c613848565b5b6040519080825280601f01601f19166020018201604052801561175f5781602001600182028036833780820191505090505b50905060008290508593505b600084146117f157600a84611780919061372c565b603061178c91906134db565b60f81b828261179a90613656565b925082815181106117ae576117ad613819565b5b60200101907effffffffffffffffffffffffffffffffffffffffffffffffffffffffffffff1916908160001a905350600a846117ea9190613531565b935061176b565b819450505050505b919050565b606061183a8383604051806020016040528060008152506040518060200160405280600081525060405180602001604052806000815250612006565b905092915050565b6000806002600084815260200190815260200160002060009054906101000a900473ffffffffffffffffffffffffffffffffffffffff169050600073ffffffffffffffffffffffffffffffffffffffff168173ffffffffffffffffffffffffffffffffffffffff161415915050919050565b6118be8282612381565b6118c88282611f42565b6118d181612521565b5050565b6118de81611842565b6118e757600080fd5b611983601180546118f790613680565b80601f016020809104026020016040519081016040528092919081815260200182805461192390613680565b80156119705780601f1061194557610100808354040283529160200191611970565b820191906000526020600020905b81548152906001019060200180831161195357829003601f168201915b505050505061197e83611697565b6117fe565b6012600083815260200190815260200160002090805190602001906119a992919061265e565b5050565b600081600001549050919050565b60006119dc8473ffffffffffffffffffffffffffffffffffffffff1661256a565b6119e95760019050611aca565b60008473ffffffffffffffffffffffffffffffffffffffff1663150b7a02338887876040518563ffffffff1660e01b8152600401611a2a94939291906131bb565b602060405180830381600087803b158015611a4457600080fd5b505af1158015611a58573d6000803e3d6000fd5b505050506040513d601f19601f82011682018060405250810190611a7c9190612d3c565b905063150b7a0260e01b7bffffffffffffffffffffffffffffffffffffffffffffffffffffffff1916817bffffffffffffffffffffffffffffffffffffffffffffffffffffffff1916149150505b949350505050565b6002600082815260200190815260200160002060009054906101000a900473ffffffffffffffffffffffffffffffffffffffff1673ffffffffffffffffffffffffffffffffffffffff168373ffffffffffffffffffffffffffffffffffffffff1614611b73576040517f08c379a0000000000000000000000000000000000000000000000000000000008152600401611b6a90613284565b60405180910390fd5b600073ffffffffffffffffffffffffffffffffffffffff168273ffffffffffffffffffffffffffffffffffffffff161415611be3576040517f08c379a0000000000000000000000000000000000000000000000000000000008152600401611bda906132c4565b60405180910390fd5b60006003600083815260200190815260200160002060006101000a81548173ffffffffffffffffffffffffffffffffffffffff021916908373ffffffffffffffffffffffffffffffffffffffff1602179055506000600460008573ffffffffffffffffffffffffffffffffffffffff1673ffffffffffffffffffffffffffffffffffffffff1681526020019081526020016000209050611c828261257d565b611c8b8161263b565b80600460008573ffffffffffffffffffffffffffffffffffffffff1673ffffffffffffffffffffffffffffffffffffffff16815260200190815260200160002060008201548160000155905050826002600084815260200190815260200160002060006101000a81548173ffffffffffffffffffffffffffffffffffffffff021916908373ffffffffffffffffffffffffffffffffffffffff160217905550818373ffffffffffffffffffffffffffffffffffffffff168573ffffffffffffffffffffffffffffffffffffffff167fddf252ad1be2c89b69c2b068fc378daa952ba7f163c4a11628f55a4df523b3ef60405160405180910390a450505050565b60006001600660008573ffffffffffffffffffffffffffffffffffffffff1673ffffffffffffffffffffffffffffffffffffffff16815260200190815260200160002080549050611ddc9190613562565b9050600060076000848152602001908152602001600020549050818114611ed7576000600660008673ffffffffffffffffffffffffffffffffffffffff1673ffffffffffffffffffffffffffffffffffffffff1681526020019081526020016000208381548110611e5057611e4f613819565b5b9060005260206000200154905080600660008773ffffffffffffffffffffffffffffffffffffffff1673ffffffffffffffffffffffffffffffffffffffff1681526020019081526020016000208381548110611eaf57611eae613819565b5b9060005260206000200181905550816007600083815260200190815260200160002081905550505b600660008573ffffffffffffffffffffffffffffffffffffffff1673ffffffffffffffffffffffffffffffffffffffff168152602001908152602001600020805480611f2657611f256137ea565b5b6001900381819060005260206000200160009055905550505050565b600660008373ffffffffffffffffffffffffffffffffffffffff1673ffffffffffffffffffffffffffffffffffffffff168152602001908152602001600020805490506007600083815260200190815260200160002081905550600660008373ffffffffffffffffffffffffffffffffffffffff1673ffffffffffffffffffffffffffffffffffffffff1681526020019081526020016000208190806001815401808255809150506001900390600052602060002001600090919091909150555050565b60606000869050600086905060008690506000869050600086905060008151835185518751895161203791906134db565b61204191906134db565b61204b91906134db565b61205591906134db565b67ffffffffffffffff81111561206e5761206d613848565b5b6040519080825280601f01601f1916602001820160405280156120a05781602001600182028036833780820191505090505b5090506000819050600080600090505b8851811015612138578881815181106120cc576120cb613819565b5b602001015160f81c60f81b8383806120e3906136e3565b9450815181106120f6576120f5613819565b5b60200101907effffffffffffffffffffffffffffffffffffffffffffffffffffffffffffff1916908160001a9053508080612130906136e3565b9150506120b0565b600090505b87518110156121c55787818151811061215957612158613819565b5b602001015160f81c60f81b838380612170906136e3565b94508151811061218357612182613819565b5b60200101907effffffffffffffffffffffffffffffffffffffffffffffffffffffffffffff1916908160001a90535080806121bd906136e3565b91505061213d565b600090505b8651811015612252578681815181106121e6576121e5613819565b5b602001015160f81c60f81b8383806121fd906136e3565b9450815181106122105761220f613819565b5b60200101907effffffffffffffffffffffffffffffffffffffffffffffffffffffffffffff1916908160001a905350808061224a906136e3565b9150506121ca565b600090505b85518110156122df5785818151811061227357612272613819565b5b602001015160f81c60f81b83838061228a906136e3565b94508151811061229d5761229c613819565b5b60200101907effffffffffffffffffffffffffffffffffffffffffffffffffffffffffffff1916908160001a90535080806122d7906136e3565b915050612257565b600090505b845181101561236c57848181518110612300576122ff613819565b5b602001015160f81c60f81b838380612317906136e3565b94508151811061232a57612329613819565b5b60200101907effffffffffffffffffffffffffffffffffffffffffffffffffffffffffffff1916908160001a9053508080612364906136e3565b9150506122e4565b82995050505050505050505095945050505050565b600073ffffffffffffffffffffffffffffffffffffffff166002600083815260200190815260200160002060009054906101000a900473ffffffffffffffffffffffffffffffffffffffff1673ffffffffffffffffffffffffffffffffffffffff1614612423576040517f08c379a000000000000000000000000000000000000000000000000000000000815260040161241a906132a4565b60405180910390fd5b816002600083815260200190815260200160002060006101000a81548173ffffffffffffffffffffffffffffffffffffffff021916908373ffffffffffffffffffffffffffffffffffffffff1602179055506000600460008473ffffffffffffffffffffffffffffffffffffffff1673ffffffffffffffffffffffffffffffffffffffff16815260200190815260200160002090506124c181612648565b818373ffffffffffffffffffffffffffffffffffffffff163373ffffffffffffffffffffffffffffffffffffffff167fddf252ad1be2c89b69c2b068fc378daa952ba7f163c4a11628f55a4df523b3ef60405160405180910390a4505050565b6008805490506009600083815260200190815260200160002081905550600881908060018154018082558091505060019003906000526020600020016000909190919091505550565b600080823b905060008111915050919050565b600073ffffffffffffffffffffffffffffffffffffffff166003600083815260200190815260200160002060009054906101000a900473ffffffffffffffffffffffffffffffffffffffff1673ffffffffffffffffffffffffffffffffffffffff16146126385760006003600083815260200190815260200160002060006101000a81548173ffffffffffffffffffffffffffffffffffffffff021916908373ffffffffffffffffffffffffffffffffffffffff1602179055505b50565b6000816000018190555050565b6001816000016000828254019250508190555050565b82805461266a90613680565b90600052602060002090601f01602090048101928261268c57600085556126d3565b82601f106126a557805160ff19168380011785556126d3565b828001600101855582156126d3579182015b828111156126d25782518255916020019190600101906126b7565b5b5090506126e091906126e4565b5090565b5b808211156126fd5760008160009055506001016126e5565b5090565b600061271461270f846133d8565b6133b3565b9050808285602086028201111561272e5761272d613881565b5b60005b8581101561275e578161274488826129f6565b845260208401935060208301925050600181019050612731565b5050509392505050565b600061277b612776846133fe565b6133b3565b90508281526020810184848401111561279757612796613886565b5b6127a2848285613614565b509392505050565b60006127bd6127b88461342f565b6133b3565b9050828152602081018484840111156127d9576127d8613886565b5b6127e4848285613614565b509392505050565b6000813590506127fb816139ee565b92915050565b600082601f83011261281657612815613877565b5b6002612823848285612701565b91505092915050565b60008135905061283b81613a05565b92915050565b60008151905061285081613a05565b92915050565b60008135905061286581613a1c565b92915050565b60008135905061287a81613a33565b92915050565b60008151905061288f81613a33565b92915050565b600082601f8301126128aa576128a9613877565b5b81356128ba848260208601612768565b91505092915050565b600082601f8301126128d8576128d7613877565b5b81356128e88482602086016127aa565b91505092915050565b6000604082840312156129075761290661387c565b5b61291160406133b3565b90506000612921848285016129f6565b6000830152506020612935848285016129f6565b60208301525092915050565b6000608082840312156129575761295661387c565b5b61296160406133b3565b9050600061297184828501612801565b600083015250604061298584828501612801565b60208301525092915050565b600061010082840312156129a8576129a761387c565b5b6129b260606133b3565b905060006129c2848285016128f1565b60008301525060406129d684828501612941565b60208301525060c06129ea848285016128f1565b60408301525092915050565b600081359050612a0581613a4a565b92915050565b600060208284031215612a2157612a20613890565b5b6000612a2f848285016127ec565b91505092915050565b60008060408385031215612a4f57612a4e613890565b5b6000612a5d858286016127ec565b9250506020612a6e858286016127ec565b9150509250929050565b600080600060608486031215612a9157612a90613890565b5b6000612a9f868287016127ec565b9350506020612ab0868287016127ec565b9250506040612ac1868287016129f6565b9150509250925092565b60008060008060808587031215612ae557612ae4613890565b5b6000612af3878288016127ec565b9450506020612b04878288016127ec565b9350506040612b15878288016129f6565b925050606085013567ffffffffffffffff811115612b3657612b3561388b565b5b612b4287828801612895565b91505092959194509250565b60008060408385031215612b6557612b64613890565b5b6000612b73858286016127ec565b9250506020612b848582860161282c565b9150509250929050565b60008060408385031215612ba557612ba4613890565b5b6000612bb3858286016127ec565b9250506020612bc4858286016129f6565b9150509250929050565b600060208284031215612be457612be3613890565b5b6000612bf28482850161282c565b91505092915050565b600060208284031215612c1157612c10613890565b5b6000612c1f84828501612841565b91505092915050565b60008060408385031215612c3f57612c3e613890565b5b6000612c4d85828601612856565b925050602083013567ffffffffffffffff811115612c6e57612c6d61388b565b5b612c7a858286016128c3565b9150509250929050565b600080600060608486031215612c9d57612c9c613890565b5b6000612cab86828701612856565b935050602084013567ffffffffffffffff811115612ccc57612ccb61388b565b5b612cd8868287016128c3565b925050604084013567ffffffffffffffff811115612cf957612cf861388b565b5b612d0586828701612895565b9150509250925092565b600060208284031215612d2557612d24613890565b5b6000612d338482850161286b565b91505092915050565b600060208284031215612d5257612d51613890565b5b6000612d6084828501612880565b91505092915050565b600060208284031215612d7f57612d7e613890565b5b6000612d8d848285016129f6565b91505092915050565b60008060408385031215612dad57612dac613890565b5b6000612dbb858286016129f6565b9250506020612dcc858286016127ec565b9150509250929050565b60008060006101608486031215612df057612def613890565b5b6000612dfe868287016129f6565b9350506020612e0f86828701612991565b925050610120612e2186828701612801565b9150509250925092565b6000612e37838361316b565b60208301905092915050565b612e4c81613596565b82525050565b612e5b8161346a565b612e658184613498565b9250612e7082613460565b8060005b83811015612ea1578151612e888782612e2b565b9650612e938361348b565b925050600181019050612e74565b505050505050565b612eb28161346a565b612ebc81846134a3565b9250612ec782613460565b8060005b83811015612ef8578151612edf8782612e2b565b9650612eea8361348b565b925050600181019050612ecb565b505050505050565b612f09816135a8565b82525050565b6000612f1a82613475565b612f2481856134ae565b9350612f34818560208601613623565b612f3d81613895565b840191505092915050565b6000612f5382613480565b612f5d81856134bf565b9350612f6d818560208601613623565b612f7681613895565b840191505092915050565b6000612f8c82613480565b612f9681856134d0565b9350612fa6818560208601613623565b80840191505092915050565b6000612fbf601d836134bf565b9150612fca826138a6565b602082019050919050565b6000612fe2601e836134bf565b9150612fed826138cf565b602082019050919050565b6000613005601c836134bf565b9150613010826138f8565b602082019050919050565b60006130286014836134bf565b915061303382613921565b602082019050919050565b600061304b6014836134bf565b91506130568261394a565b602082019050919050565b600061306e6010836134bf565b915061307982613973565b602082019050919050565b6000613091601c836134bf565b915061309c8261399c565b602082019050919050565b60006130b46016836134bf565b91506130bf826139c5565b602082019050919050565b6040820160008201516130e0600085018261316b565b5060208201516130f3602085018261316b565b50505050565b60808201600082015161310f6000850182612e52565b5060208201516131226040850182612e52565b50505050565b6101008201600082015161313f60008501826130ca565b50602082015161315260408501826130f9565b50604082015161316560c08501826130ca565b50505050565b6131748161360a565b82525050565b6131838161360a565b82525050565b60006131958284612f81565b915081905092915050565b60006020820190506131b56000830184612e43565b92915050565b60006080820190506131d06000830187612e43565b6131dd6020830186612e43565b6131ea604083018561317a565b81810360608301526131fc8184612f0f565b905095945050505050565b600060208201905061321c6000830184612f00565b92915050565b6000602082019050818103600083015261323c8184612f48565b905092915050565b6000602082019050818103600083015261325d81612fb2565b9050919050565b6000602082019050818103600083015261327d81612fd5565b9050919050565b6000602082019050818103600083015261329d81612ff8565b9050919050565b600060208201905081810360008301526132bd8161301b565b9050919050565b600060208201905081810360008301526132dd8161303e565b9050919050565b600060208201905081810360008301526132fd81613061565b9050919050565b6000602082019050818103600083015261331d81613084565b9050919050565b6000602082019050818103600083015261333d816130a7565b9050919050565b60006101408201905061335a6000830185613128565b613368610100830184612ea9565b9392505050565b6000602082019050613384600083018461317a565b92915050565b600060408201905061339f600083018561317a565b6133ac6020830184612e43565b9392505050565b60006133bd6133ce565b90506133c982826136b2565b919050565b6000604051905090565b600067ffffffffffffffff8211156133f3576133f2613848565b5b602082029050919050565b600067ffffffffffffffff82111561341957613418613848565b5b61342282613895565b9050602081019050919050565b600067ffffffffffffffff82111561344a57613449613848565b5b61345382613895565b9050602081019050919050565b6000819050919050565b600060029050919050565b600081519050919050565b600081519050919050565b6000602082019050919050565b600081905092915050565b600081905092915050565b600082825260208201905092915050565b600082825260208201905092915050565b600081905092915050565b60006134e68261360a565b91506134f18361360a565b9250827fffffffffffffffffffffffffffffffffffffffffffffffffffffffffffffffff038211156135265761352561375d565b5b828201905092915050565b600061353c8261360a565b91506135478361360a565b9250826135575761355661378c565b5b828204905092915050565b600061356d8261360a565b91506135788361360a565b92508282101561358b5761358a61375d565b5b828203905092915050565b60006135a1826135ea565b9050919050565b60008115159050919050565b6000819050919050565b60007fffffffff0000000000000000000000000000000000000000000000000000000082169050919050565b600073ffffffffffffffffffffffffffffffffffffffff82169050919050565b6000819050919050565b82818337600083830152505050565b60005b83811015613641578082015181840152602081019050613626565b83811115613650576000848401525b50505050565b60006136618261360a565b915060008214156136755761367461375d565b5b600182039050919050565b6000600282049050600182168061369857607f821691505b602082108114156136ac576136ab6137bb565b5b50919050565b6136bb82613895565b810181811067ffffffffffffffff821117156136da576136d9613848565b5b80604052505050565b60006136ee8261360a565b91507fffffffffffffffffffffffffffffffffffffffffffffffffffffffffffffffff8214156137215761372061375d565b5b600182019050919050565b60006137378261360a565b91506137428361360a565b9250826137525761375161378c565b5b828206905092915050565b7f4e487b7100000000000000000000000000000000000000000000000000000000600052601160045260246000fd5b7f4e487b7100000000000000000000000000000000000000000000000000000000600052601260045260246000fd5b7f4e487b7100000000000000000000000000000000000000000000000000000000600052602260045260246000fd5b7f4e487b7100000000000000000000000000000000000000000000000000000000600052603160045260246000fd5b7f4e487b7100000000000000000000000000000000000000000000000000000000600052603260045260246000fd5b7f4e487b7100000000000000000000000000000000000000000000000000000000600052604160045260246000fd5b600080fd5b600080fd5b600080fd5b600080fd5b600080fd5b600080fd5b6000601f19601f8301169050919050565b7f496e76616c6964206164647265737320666f72206e6577206f776e6572000000600082015250565b7f416464726573732063616e206e6f7420626520746f6b656e206f776e65720000600082015250565b7f66726f6d2061646472657373206e6f7420746f6b656e206f776e657200000000600082015250565b7f546f6b656e20616c726561647920657869737473000000000000000000000000600082015250565b7f746f2061646472657373206e6f742076616c6964000000000000000000000000600082015250565b7f5061757361626c653a2070617573656400000000000000000000000000000000600082015250565b7f43616c6c6572206973206e6f7420636f6e7472616374206f776e657200000000600082015250565b7f73656e646572206e6f7420746f6b656e206f776e657200000000000000000000600082015250565b6139f781613596565b8114613a0257600080fd5b50565b613a0e816135a8565b8114613a1957600080fd5b50565b613a25816135b4565b8114613a3057600080fd5b50565b613a3c816135be565b8114613a4757600080fd5b50565b613a538161360a565b8114613a5e57600080fd5b5056fe68747470733a2f2f73332d75732d776573742d322e616d617a6f6e6177732e636f6d2f756461636974792d626c6f636b636861696e2f63617073746f6e652fa26469706673582212201e302998ca1461243896969039ed0b1d0495a7d70a692a6360d631ffdd7cd6e264736f6c6343000807003368747470733a2f2f73332d75732d776573742d322e616d617a6f6e6177732e636f6d2f756461636974792d626c6f636b636861696e2f63617073746f6e652f",
  "immutableReferences": {},
  "source": "// SPDX-License-Identifier: MIT\npragma solidity  ^0.8.7;\n\nimport \"./ERC721Mintable.sol\";\nimport \"./SquareVerifier.sol\";\n\n// define another contract named SolnSquareVerifier that inherits from your ERC721Mintable class\ncontract SolnSquareVerifier is ERC721Mintable {\n\n    // define a contract call to the zokrates generated solidity contract <Verifier> or <renamedVerifier>\n    Verifier verifier;\n\n\n    constructor (address verifierAddress) {\n       verifier = Verifier(verifierAddress);\n    }\n\n\n    // define a solutions struct that can hold an index & an address\n    struct Solution {    \n        uint256 index;  \n        address owner;\n    }\n\n    // define an array of the above struct\n    Solution[] solutions;\n\n    // define a mapping to store unique solutions submitted\n    mapping(uint256 => Solution) private uniqueSolutions;\n\n\n    // Create an event to emit when a solution is added\n    event SolutionAdded(uint256 index, address owner);\n\n\n    // Create a function to add the solutions to the array and emit the event\n    function addSolution(uint256 index, address owner) public {\n        Solution memory solution = Solution(index, owner);\n        solutions.push(solution);\n        uniqueSolutions[index] = solution;\n        emit SolutionAdded(index, owner);\n    }\n\n    // Create a function to mint new NFT only after the solution has been verified\n    //  - make sure the solution is unique (has not been used before)\n    //  - make sure you handle metadata as well as tokenSupply\n    // metadata = name, symbol, URI\n    // tokenSupply = _allTokens.length, added on mint() call\n    function mintNFT(uint256 tokenId, SquareVerifier.Proof memory proof, uint[2] memory input) public {\n        require(verifier.verifyTx(proof, input) == true);\n        require(uniqueSolutions[tokenId].owner == address(0x0));\n        require(keccak256(abi.encodePacked(getName())) == keccak256(\"FrevoCoin\"));\n        require(keccak256(abi.encodePacked(getSymbol())) == keccak256(\"FRC\"));\n        addSolution(tokenId, msg.sender);\n        uint256 existingTotalSupply = totalSupply();\n        mint(msg.sender, tokenId);\n        require(totalSupply() == existingTotalSupply + 1);\n        string memory tokenURI = getTokenURI(tokenId);\n        string memory expectedTokenURI = strConcat(\"https://s3-us-west-2.amazonaws.com/udacity-blockchain/capstone/\", uint2strNew(tokenId));\n        require(keccak256(abi.encodePacked(tokenURI)) == keccak256(abi.encodePacked(expectedTokenURI)));\n    }\n\n}\n\nabstract contract Verifier {    \n    function verifyTx(SquareVerifier.Proof memory proof, uint[2] memory input) public virtual view returns (bool r);\n}\n\n\n\n\n\n\n\n\n\n\n\n\n\n\n\n\n\n\n\n\n\n\n\n\n\n\n",
  "sourcePath": "/workspaces/real_state_nft_marketplace_dapp/dapp/contracts/SolnSquareVerifier.sol",
  "compiler": {
    "name": "solc",
    "version": "0.8.7+commit.e28d00a7.Emscripten.clang"
  },
  "schemaVersion": "3.4.3",
  "updatedAt": "2022-08-21T18:44:12.165Z",
  "devdoc": {
    "kind": "dev",
    "methods": {
      "isApprovedForAll(address,address)": {
        "details": "Tells whether an operator is approved by a given owner",
        "params": {
          "operator": "operator address which you want to query the approval of",
          "owner": "owner address which you want to query the approval of"
        },
        "returns": {
          "_0": "bool whether the given operator is approved by the given owner"
        }
      },
      "mint(address,uint256)": {
        "details": "Mint new token",
        "params": {
          "to": "address of the owner of the newly minted token",
          "tokenId": "id of the newly minted token"
        }
      },
      "paused()": {
        "details": "Returns true if the contract is paused, and false otherwise."
      },
      "setApprovalForAll(address,bool)": {
        "details": "Sets or unsets the approval of a given operator An operator is allowed to transfer all tokens of the sender on their behalf",
        "params": {
          "approved": "representing the status of the approval to be set",
          "to": "operator address to set the approval"
        }
      },
      "supportsInterface(bytes4)": {
        "details": "implement supportsInterface(bytes4) using a lookup table"
      },
      "tokenByIndex(uint256)": {
        "details": "Gets the token ID at a given index of all the tokens in this contract Reverts if the index is greater or equal to the total number of tokens",
        "params": {
          "index": "uint256 representing the index to be accessed of the tokens list"
        },
        "returns": {
          "_0": "uint256 token ID at the given index of the tokens list"
        }
      },
      "tokenOfOwnerByIndex(address,uint256)": {
        "details": "Gets the token ID at a given index of the tokens list of the requested owner",
        "params": {
          "index": "uint256 representing the index to be accessed of the requested tokens list",
          "owner": "address owning the tokens list to be accessed"
        },
        "returns": {
          "_0": "uint256 token ID at the given index of the tokens list owned by the requested address"
        }
      },
      "totalSupply()": {
        "details": "Gets the total amount of tokens stored by the contract",
        "returns": {
          "_0": "uint256 representing the total amount of tokens"
        }
      }
    },
    "version": 1
  },
  "userdoc": {
    "kind": "user",
    "methods": {},
    "version": 1
  }
}