{
  "contractName": "usingOraclize",
  "abi": [
    {
      "inputs": [
        {
          "internalType": "bytes32",
          "name": "_myid",
          "type": "bytes32"
        },
        {
          "internalType": "string",
          "name": "_result",
          "type": "string"
        }
      ],
      "name": "__callback",
      "outputs": [],
      "stateMutability": "pure",
      "type": "function"
    },
    {
      "inputs": [
        {
          "internalType": "bytes32",
          "name": "_myid",
          "type": "bytes32"
        },
        {
          "internalType": "string",
          "name": "_result",
          "type": "string"
        },
        {
          "internalType": "bytes",
          "name": "_proof",
          "type": "bytes"
        }
      ],
      "name": "__callback",
      "outputs": [],
      "stateMutability": "pure",
      "type": "function"
    }
  ],
  "bytecode": "0x608060405234801561001057600080fd5b50610422806100206000396000f3fe608060405234801561001057600080fd5b50600436106100365760003560e01c806327dc297e1461003b57806338bbfa5014610057575b600080fd5b610055600480360381019061005091906101c9565b610073565b005b610071600480360381019061006c9190610225565b6100cf565b005b6100cb8282600067ffffffffffffffff81111561009357610092610381565b5b6040519080825280601f01601f1916602001820160405280156100c55781602001600182028036833780820191505090505b506100cf565b5050565b505050565b60006100e76100e2846102d5565b6102b0565b905082815260208101848484011115610103576101026103b5565b5b61010e848285610341565b509392505050565b600061012961012484610306565b6102b0565b905082815260208101848484011115610145576101446103b5565b5b610150848285610341565b509392505050565b600081359050610167816103d5565b92915050565b600082601f830112610182576101816103b0565b5b81356101928482602086016100d4565b91505092915050565b600082601f8301126101b0576101af6103b0565b5b81356101c0848260208601610116565b91505092915050565b600080604083850312156101e0576101df6103bf565b5b60006101ee85828601610158565b925050602083013567ffffffffffffffff81111561020f5761020e6103ba565b5b61021b8582860161019b565b9150509250929050565b60008060006060848603121561023e5761023d6103bf565b5b600061024c86828701610158565b935050602084013567ffffffffffffffff81111561026d5761026c6103ba565b5b6102798682870161019b565b925050604084013567ffffffffffffffff81111561029a576102996103ba565b5b6102a68682870161016d565b9150509250925092565b60006102ba6102cb565b90506102c68282610350565b919050565b6000604051905090565b600067ffffffffffffffff8211156102f0576102ef610381565b5b6102f9826103c4565b9050602081019050919050565b600067ffffffffffffffff82111561032157610320610381565b5b61032a826103c4565b9050602081019050919050565b6000819050919050565b82818337600083830152505050565b610359826103c4565b810181811067ffffffffffffffff8211171561037857610377610381565b5b80604052505050565b7f4e487b7100000000000000000000000000000000000000000000000000000000600052604160045260246000fd5b600080fd5b600080fd5b600080fd5b600080fd5b6000601f19601f8301169050919050565b6103de81610337565b81146103e957600080fd5b5056fea26469706673582212200900a8422c37016235f865599b9f65639ffed836e51bbbd2306ae9d13ba4d19c64736f6c63430008070033",
  "immutableReferences": {},
  "source": "// SPDX-License-Identifier: MIT\n/*\n\nORACLIZE_API\n\nCopyright (c) 2015-2016 Oraclize SRL\nCopyright (c) 2016 Oraclize LTD\n\nPermission is hereby granted, free of charge, to any person obtaining a copy\nof this software and associated documentation files (the \"Software\"), to deal\nin the Software without restriction, including without limitation the rights\nto use, copy, modify, merge, publish, distribute, sublicense, and/or sell\ncopies of the Software, and to permit persons to whom the Software is\nfurnished to do so, subject to the following conditions:\n\nThe above copyright notice and this permission notice shall be included in\nall copies or substantial portions of the Software.\n\nTHE SOFTWARE IS PROVIDED \"AS IS\", WITHOUT WARRANTY OF ANY KIND, EXPRESS OR\nIMPLIED, INCLUDING BUT NOT LIMITED TO THE WARRANTIES OF MERCHANTABILITY,\nFITNESS FOR A PARTICULAR PURPOSE AND NONINFRINGEMENT.  IN NO EVENT SHALL THE\nAUTHORS OR COPYRIGHT HOLDERS BE LIABLE FOR ANY CLAIM, DAMAGES OR OTHER\nLIABILITY, WHETHER IN AN ACTION OF CONTRACT, TORT OR OTHERWISE, ARISING FROM,\nOUT OF OR IN CONNECTION WITH THE SOFTWARE OR THE USE OR OTHER DEALINGS IN\nTHE SOFTWARE.\n\n*/\npragma solidity ^0.8.7;\n\n// Dummy contract only used to emit to end-user they are using wrong solc\n// abstract contract solcChecker {\n// /* INCOMPATIBLE SOLC: import the following instead: \"github.com/oraclize/ethereum-api/oraclizeAPI_0.4.sol\" */ function f(bytes calldata x) external;\n// }\n\nabstract contract OraclizeI {\n\n    address public cbAddress;\n\n    function setProofType(bytes32 _proofType) external virtual;\n    function setCustomGasPrice(uint _gasPrice) external virtual;\n    function getPrice(string memory _datasource) public virtual returns (uint _dsprice);\n    function randomDS_getSessionPubKeyHash() external view virtual returns (bytes32 _sessionKeyHash);\n    function getPrice(string memory _datasource, uint _gasLimit) public virtual returns (uint _dsprice);\n    function queryN(uint _timestamp, string memory _datasource, bytes memory _argN) public payable virtual returns (bytes1 _id);\n    function query(uint _timestamp, string calldata _datasource, string calldata _arg) external payable virtual returns (bytes1 _id);\n    function query2(uint _timestamp, string memory _datasource, string memory _arg1, string memory _arg2) public payable virtual returns (bytes1 _id);\n    function query_withGasLimit(uint _timestamp, string calldata _datasource, string calldata _arg, uint _gasLimit) external payable virtual returns (bytes1 _id);\n    function queryN_withGasLimit(uint _timestamp, string calldata _datasource, bytes calldata _argN, uint _gasLimit) external payable virtual returns (bytes1 _id);\n    function query2_withGasLimit(uint _timestamp, string calldata _datasource, string calldata _arg1, string calldata _arg2, uint _gasLimit) external payable virtual returns (bytes1 _id);\n}\n\nabstract contract OraclizeAddrResolverI {\n    function getAddress() public virtual returns (address _address);\n}\n/*\n\nBegin solidity-cborutils\n\nhttps://github.com/smartcontractkit/solidity-cborutils\n\nMIT License\n\nCopyright (c) 2018 SmartContract ChainLink, Ltd.\n\nPermission is hereby granted, free of charge, to any person obtaining a copy\nof this software and associated documentation files (the \"Software\"), to deal\nin the Software without restriction, including without limitation the rights\nto use, copy, modify, merge, publish, distribute, sublicense, and/or sell\ncopies of the Software, and to permit persons to whom the Software is\nfurnished to do so, subject to the following conditions:\n\nThe above copyright notice and this permission notice shall be included in all\ncopies or substantial portions of the Software.\n\nTHE SOFTWARE IS PROVIDED \"AS IS\", WITHOUT WARRANTY OF ANY KIND, EXPRESS OR\nIMPLIED, INCLUDING BUT NOT LIMITED TO THE WARRANTIES OF MERCHANTABILITY,\nFITNESS FOR A PARTICULAR PURPOSE AND NONINFRINGEMENT. IN NO EVENT SHALL THE\nAUTHORS OR COPYRIGHT HOLDERS BE LIABLE FOR ANY CLAIM, DAMAGES OR OTHER\nLIABILITY, WHETHER IN AN ACTION OF CONTRACT, TORT OR OTHERWISE, ARISING FROM,\nOUT OF OR IN CONNECTION WITH THE SOFTWARE OR THE USE OR OTHER DEALINGS IN THE\nSOFTWARE.\n\n*/\nlibrary Buffer {\n\n    struct buffer {\n        bytes buf;\n        uint capacity;\n    }\n\n    function init(buffer memory _buf, uint _capacity) internal pure {\n        uint capacity = _capacity;\n        if (capacity % 32 != 0) {\n            capacity += 32 - (capacity % 32);\n        }\n        _buf.capacity = capacity; // Allocate space for the buffer data\n        assembly {\n            let ptr := mload(0x40)\n            mstore(_buf, ptr)\n            mstore(ptr, 0)\n            mstore(0x40, add(ptr, capacity))\n        }\n    }\n\n    function resize(buffer memory _buf, uint _capacity) private pure {\n        bytes memory oldbuf = _buf.buf;\n        init(_buf, _capacity);\n        append(_buf, oldbuf);\n    }\n\n    function max(uint _a, uint _b) private pure returns (uint _max) {\n        if (_a > _b) {\n            return _a;\n        }\n        return _b;\n    }\n    /*\n      * @dev Appends a byte array to the end of the buffer. Resizes if doing so\n      *      would exceed the capacity of the buffer.\n      * @param _buf The buffer to append to.\n      * @param _data The data to append.\n      * @return The original buffer.\n      *\n      */\n    function append(buffer memory _buf, bytes memory _data) internal pure returns (buffer memory _buffer) {\n        if (_data.length + _buf.buf.length > _buf.capacity) {\n            resize(_buf, max(_buf.capacity, _data.length) * 2);\n        }\n        uint dest;\n        uint src;\n        uint len = _data.length;\n        assembly {\n            let bufptr := mload(_buf) // Memory address of the buffer data\n            let buflen := mload(bufptr) // Length of existing buffer data\n            dest := add(add(bufptr, buflen), 32) // Start address = buffer address + buffer length + sizeof(buffer length)\n            mstore(bufptr, add(buflen, mload(_data))) // Update buffer length\n            src := add(_data, 32)\n        }\n        for(; len >= 32; len -= 32) { // Copy word-length chunks while possible\n            assembly {\n                mstore(dest, mload(src))\n            }\n            dest += 32;\n            src += 32;\n        }\n        uint mask = 256 ** (32 - len) - 1; // Copy remaining bytes\n        assembly {\n            let srcpart := and(mload(src), not(mask))\n            let destpart := and(mload(dest), mask)\n            mstore(dest, or(destpart, srcpart))\n        }\n        return _buf;\n    }\n    /*\n      *\n      * @dev Appends a byte to the end of the buffer. Resizes if doing so would\n      * exceed the capacity of the buffer.\n      * @param _buf The buffer to append to.\n      * @param _data The data to append.\n      * @return The original buffer.\n      *\n      */\n    function append(buffer memory _buf, uint8 _data) internal pure {\n        if (_buf.buf.length + 1 > _buf.capacity) {\n            resize(_buf, _buf.capacity * 2);\n        }\n        assembly {\n            let bufptr := mload(_buf) // Memory address of the buffer data\n            let buflen := mload(bufptr) // Length of existing buffer data\n            let dest := add(add(bufptr, buflen), 32) // Address = buffer address + buffer length + sizeof(buffer length)\n            mstore8(dest, _data)\n            mstore(bufptr, add(buflen, 1)) // Update buffer length\n        }\n    }\n    /*\n      *\n      * @dev Appends a byte to the end of the buffer. Resizes if doing so would\n      * exceed the capacity of the buffer.\n      * @param _buf The buffer to append to.\n      * @param _data The data to append.\n      * @return The original buffer.\n      *\n      */\n    function appendInt(buffer memory _buf, uint _data, uint _len) internal pure returns (buffer memory _buffer) {\n        if (_len + _buf.buf.length > _buf.capacity) {\n            resize(_buf, max(_buf.capacity, _len) * 2);\n        }\n        uint mask = 256 ** _len - 1;\n        assembly {\n            let bufptr := mload(_buf) // Memory address of the buffer data\n            let buflen := mload(bufptr) // Length of existing buffer data\n            let dest := add(add(bufptr, buflen), _len) // Address = buffer address + buffer length + sizeof(buffer length) + len\n            mstore(dest, or(and(mload(dest), not(mask)), _data))\n            mstore(bufptr, add(buflen, _len)) // Update buffer length\n        }\n        return _buf;\n    }\n}\n\nlibrary CBOR {\n\n    using Buffer for Buffer.buffer;\n\n    uint8 private constant MAJOR_TYPE_INT = 0;\n    uint8 private constant MAJOR_TYPE_MAP = 5;\n    uint8 private constant MAJOR_TYPE_BYTES = 2;\n    uint8 private constant MAJOR_TYPE_ARRAY = 4;\n    uint8 private constant MAJOR_TYPE_STRING = 3;\n    uint8 private constant MAJOR_TYPE_NEGATIVE_INT = 1;\n    uint8 private constant MAJOR_TYPE_CONTENT_FREE = 7;\n\n    function encodeType(Buffer.buffer memory _buf, uint8 _major, uint _value) private pure {\n        if (_value <= 23) {\n            _buf.append(uint8((_major << 5) | _value));\n        } else if (_value <= 0xFF) {\n            _buf.append(uint8((_major << 5) | 24));\n            _buf.appendInt(_value, 1);\n        } else if (_value <= 0xFFFF) {\n            _buf.append(uint8((_major << 5) | 25));\n            _buf.appendInt(_value, 2);\n        } else if (_value <= 0xFFFFFFFF) {\n            _buf.append(uint8((_major << 5) | 26));\n            _buf.appendInt(_value, 4);\n        } else if (_value <= 0xFFFFFFFFFFFFFFFF) {\n            _buf.append(uint8((_major << 5) | 27));\n            _buf.appendInt(_value, 8);\n        }\n    }\n\n    function encodeIndefiniteLengthType(Buffer.buffer memory _buf, uint8 _major) private pure {\n        _buf.append(uint8((_major << 5) | 31));\n    }\n\n    function encodeUInt(Buffer.buffer memory _buf, uint _value) internal pure {\n        encodeType(_buf, MAJOR_TYPE_INT, _value);\n    }\n\n    function encodeInt(Buffer.buffer memory _buf, int _value) internal pure {\n        if (_value >= 0) {\n            encodeType(_buf, MAJOR_TYPE_INT, uint(_value));\n        } else {\n            encodeType(_buf, MAJOR_TYPE_NEGATIVE_INT, uint(-1 - _value));\n        }\n    }\n\n    function encodeBytes(Buffer.buffer memory _buf, bytes memory _value) internal pure {\n        encodeType(_buf, MAJOR_TYPE_BYTES, _value.length);\n        _buf.append(_value);\n    }\n\n    function encodeString(Buffer.buffer memory _buf, string memory _value) internal pure {\n        encodeType(_buf, MAJOR_TYPE_STRING, bytes(_value).length);\n        _buf.append(bytes(_value));\n    }\n\n    function startArray(Buffer.buffer memory _buf) internal pure {\n        encodeIndefiniteLengthType(_buf, MAJOR_TYPE_ARRAY);\n    }\n\n    function startMap(Buffer.buffer memory _buf) internal pure {\n        encodeIndefiniteLengthType(_buf, MAJOR_TYPE_MAP);\n    }\n\n    function endSequence(Buffer.buffer memory _buf) internal pure {\n        encodeIndefiniteLengthType(_buf, MAJOR_TYPE_CONTENT_FREE);\n    }\n}\n/*\n\nEnd solidity-cborutils\n\n*/\ncontract usingOraclize {\n\n    using CBOR for Buffer.buffer;\n\n    OraclizeI oraclize;\n    OraclizeAddrResolverI OAR;\n\n    uint constant day = 60 * 60 * 24;\n    uint constant week = 60 * 60 * 24 * 7;\n    uint constant month = 60 * 60 * 24 * 30;\n\n    bytes1 constant proofType_NONE = 0x00;\n    bytes1 constant proofType_Ledger = 0x30;\n    bytes1 constant proofType_Native = 0xF0;\n    bytes1 constant proofStorage_IPFS = 0x01;\n    bytes1 constant proofType_Android = 0x40;\n    bytes1 constant proofType_TLSNotary = 0x10;\n\n    string oraclize_network_name;\n    uint8 constant networkID_auto = 0;\n    uint8 constant networkID_morden = 2;\n    uint8 constant networkID_mainnet = 1;\n    uint8 constant networkID_testnet = 2;\n    uint8 constant networkID_consensys = 161;\n\n    mapping(bytes32 => bytes32) oraclize_randomDS_args;\n    mapping(bytes32 => bool) oraclize_randomDS_sessionKeysHashVerified;\n\n    modifier oraclizeAPI {\n        if ((address(OAR) == address(0)) || (getCodeSize(address(OAR)) == 0)) {\n            oraclize_setNetwork(networkID_auto);\n        }\n        if (address(oraclize) != OAR.getAddress()) {\n            oraclize = OraclizeI(OAR.getAddress());\n        }\n        _;\n    }\n\n    modifier oraclize_randomDS_proofVerify(bytes32 _queryId, string memory _result, bytes memory _proof) {\n        // RandomDS Proof Step 1: The prefix has to match 'LP\\x01' (Ledger Proof version 1)\n        require((_proof[0] == \"L\") && (_proof[1] == \"P\") && (uint8(_proof[2]) == uint8(1)));\n        bool proofVerified = oraclize_randomDS_proofVerify__main(_proof, _queryId, bytes(_result), oraclize_getNetworkName());\n        require(proofVerified);\n        _;\n    }\n\n    function oraclize_setNetwork(uint8 _networkID) internal returns (bool _networkSet) {\n      _networkID; // silence the warning and remain backwards compatible\n      return oraclize_setNetwork();\n    }\n\n    function oraclize_setNetworkName(string memory _network_name) internal {\n        oraclize_network_name = _network_name;\n    }\n\n    function oraclize_getNetworkName() internal view returns (string memory _networkName) {\n        return oraclize_network_name;\n    }\n\n    function oraclize_setNetwork() internal returns (bool _networkSet) {\n        if (getCodeSize(0x1d3B2638a7cC9f2CB3D298A3DA7a90B67E5506ed) > 0) { //mainnet\n            OAR = OraclizeAddrResolverI(0x1d3B2638a7cC9f2CB3D298A3DA7a90B67E5506ed);\n            oraclize_setNetworkName(\"eth_mainnet\");\n            return true;\n        }\n        if (getCodeSize(0xc03A2615D5efaf5F49F60B7BB6583eaec212fdf1) > 0) { //ropsten testnet\n            OAR = OraclizeAddrResolverI(0xc03A2615D5efaf5F49F60B7BB6583eaec212fdf1);\n            oraclize_setNetworkName(\"eth_ropsten3\");\n            return true;\n        }\n        if (getCodeSize(0xB7A07BcF2Ba2f2703b24C0691b5278999C59AC7e) > 0) { //kovan testnet\n            OAR = OraclizeAddrResolverI(0xB7A07BcF2Ba2f2703b24C0691b5278999C59AC7e);\n            oraclize_setNetworkName(\"eth_kovan\");\n            return true;\n        }\n        if (getCodeSize(0x146500cfd35B22E4A392Fe0aDc06De1a1368Ed48) > 0) { //rinkeby testnet\n            OAR = OraclizeAddrResolverI(0x146500cfd35B22E4A392Fe0aDc06De1a1368Ed48);\n            oraclize_setNetworkName(\"eth_rinkeby\");\n            return true;\n        }\n        if (getCodeSize(0x6f485C8BF6fc43eA212E93BBF8ce046C7f1cb475) > 0) { //ethereum-bridge\n            OAR = OraclizeAddrResolverI(0x6f485C8BF6fc43eA212E93BBF8ce046C7f1cb475);\n            return true;\n        }\n        if (getCodeSize(0x20e12A1F859B3FeaE5Fb2A0A32C18F5a65555bBF) > 0) { //ether.camp ide\n            OAR = OraclizeAddrResolverI(0x20e12A1F859B3FeaE5Fb2A0A32C18F5a65555bBF);\n            return true;\n        }\n        if (getCodeSize(0x51efaF4c8B3C9AfBD5aB9F4bbC82784Ab6ef8fAA) > 0) { //browser-solidity\n            OAR = OraclizeAddrResolverI(0x51efaF4c8B3C9AfBD5aB9F4bbC82784Ab6ef8fAA);\n            return true;\n        }\n        return false;\n    }\n\n    function __callback(bytes32 _myid, string memory _result) public pure {\n        __callback(_myid, _result, new bytes(0));\n    }\n\n    function __callback(bytes32 _myid, string memory _result, bytes memory _proof) public pure {\n      _myid; _result; _proof; // Silence compiler warnings\n      return;\n    }\n\n    function oraclize_getPrice(string memory _datasource) oraclizeAPI internal returns (uint _queryPrice) {\n        return oraclize.getPrice(_datasource);\n    }\n\n    function oraclize_getPrice(string memory _datasource, uint _gasLimit) oraclizeAPI internal returns (uint _queryPrice) {\n        return oraclize.getPrice(_datasource, _gasLimit);\n    }\n\n    function oraclize_query(string memory _datasource, string memory _arg) oraclizeAPI internal returns (bytes1 _id) {\n        uint price = oraclize.getPrice(_datasource);\n        if (price > 1 ether + tx.gasprice * 200000) {\n            return 0; // Unexpectedly high price\n        }\n        return oraclize.query{value: price}(0, _datasource, _arg);\n    }\n\n    function oraclize_query(uint _timestamp, string memory _datasource, string memory _arg) oraclizeAPI internal returns (bytes1 _id) {\n        uint price = oraclize.getPrice(_datasource);\n        if (price > 1 ether + tx.gasprice * 200000) {\n            return 0; // Unexpectedly high price\n        }\n        return oraclize.query{value: price}(_timestamp, _datasource, _arg);\n    }\n\n    function oraclize_query(uint _timestamp, string memory _datasource, string memory _arg, uint _gasLimit) oraclizeAPI internal returns (bytes1 _id) {\n        uint price = oraclize.getPrice(_datasource,_gasLimit);\n        if (price > 1 ether + tx.gasprice * _gasLimit) {\n            return 0; // Unexpectedly high price\n        }\n        return oraclize.query_withGasLimit{value: price}(_timestamp, _datasource, _arg, _gasLimit);\n    }\n\n    function oraclize_query(string memory _datasource, string memory _arg, uint _gasLimit) oraclizeAPI internal returns (bytes1 _id) {\n        uint price = oraclize.getPrice(_datasource, _gasLimit);\n        if (price > 1 ether + tx.gasprice * _gasLimit) {\n           return 0; // Unexpectedly high price\n        }\n        return oraclize.query_withGasLimit{value: price}(0, _datasource, _arg, _gasLimit);\n    }\n\n    function oraclize_query(string memory _datasource, string memory _arg1, string memory _arg2) oraclizeAPI internal returns (bytes1 _id) {\n        uint price = oraclize.getPrice(_datasource);\n        if (price > 1 ether + tx.gasprice * 200000) {\n            return 0; // Unexpectedly high price\n        }\n        return oraclize.query2{value: price}(0, _datasource, _arg1, _arg2);\n    }\n\n    function oraclize_query(uint _timestamp, string memory _datasource, string memory _arg1, string memory _arg2) oraclizeAPI internal returns (bytes1 _id) {\n        uint price = oraclize.getPrice(_datasource);\n        if (price > 1 ether + tx.gasprice * 200000) {\n            return 0; // Unexpectedly high price\n        }\n        return oraclize.query2{value: price}(_timestamp, _datasource, _arg1, _arg2);\n    }\n\n    function oraclize_query(uint _timestamp, string memory _datasource, string memory _arg1, string memory _arg2, uint _gasLimit) oraclizeAPI internal returns (bytes1 _id) {\n        uint price = oraclize.getPrice(_datasource, _gasLimit);\n        if (price > 1 ether + tx.gasprice * _gasLimit) {\n            return 0; // Unexpectedly high price\n        }\n        return oraclize.query2_withGasLimit{value: price}(_timestamp, _datasource, _arg1, _arg2, _gasLimit);\n    }\n\n    function oraclize_query(string memory _datasource, string memory _arg1, string memory _arg2, uint _gasLimit) oraclizeAPI internal returns (bytes1 _id) {\n        uint price = oraclize.getPrice(_datasource, _gasLimit);\n        if (price > 1 ether + tx.gasprice * _gasLimit) {\n            return 0; // Unexpectedly high price\n        }\n        return oraclize.query2_withGasLimit{value: price}(0, _datasource, _arg1, _arg2, _gasLimit);\n    }\n\n    function oraclize_query(string memory _datasource, string[] memory _argN) oraclizeAPI internal returns (bytes1 _id) {\n        uint price = oraclize.getPrice(_datasource);\n        if (price > 1 ether + tx.gasprice * 200000) {\n            return 0; // Unexpectedly high price\n        }\n        bytes memory args = stra2cbor(_argN);\n        return oraclize.queryN{value: price}(0, _datasource, args);\n    }\n\n    function oraclize_query(uint _timestamp, string memory _datasource, string[] memory _argN) oraclizeAPI internal returns (bytes1 _id) {\n        uint price = oraclize.getPrice(_datasource);\n        if (price > 1 ether + tx.gasprice * 200000) {\n            return 0; // Unexpectedly high price\n        }\n        bytes memory args = stra2cbor(_argN);\n        return oraclize.queryN{value: price}(_timestamp, _datasource, args);\n    }\n\n    function oraclize_query(uint _timestamp, string memory _datasource, string[] memory _argN, uint _gasLimit) oraclizeAPI internal returns (bytes1 _id) {\n        uint price = oraclize.getPrice(_datasource, _gasLimit);\n        if (price > 1 ether + tx.gasprice * _gasLimit) {\n            return 0; // Unexpectedly high price\n        }\n        bytes memory args = stra2cbor(_argN);\n        return oraclize.queryN_withGasLimit{value: price}(_timestamp, _datasource, args, _gasLimit);\n    }\n\n    function oraclize_query(string memory _datasource, string[] memory _argN, uint _gasLimit) oraclizeAPI internal returns (bytes1 _id) {\n        uint price = oraclize.getPrice(_datasource, _gasLimit);\n        if (price > 1 ether + tx.gasprice * _gasLimit) {\n            return 0; // Unexpectedly high price\n        }\n        bytes memory args = stra2cbor(_argN);\n        return oraclize.queryN_withGasLimit{value: price}(0, _datasource, args, _gasLimit);\n    }\n\n    function oraclize_query(string memory _datasource, string[1] memory _args) oraclizeAPI internal returns (bytes1 _id) {\n        string[] memory dynargs = new string[](1);\n        dynargs[0] = _args[0];\n        return oraclize_query(_datasource, dynargs);\n    }\n\n    function oraclize_query(uint _timestamp, string memory _datasource, string[1] memory _args) oraclizeAPI internal returns (bytes1 _id) {\n        string[] memory dynargs = new string[](1);\n        dynargs[0] = _args[0];\n        return oraclize_query(_timestamp, _datasource, dynargs);\n    }\n\n    function oraclize_query(uint _timestamp, string memory _datasource, string[1] memory _args, uint _gasLimit) oraclizeAPI internal returns (bytes1 _id) {\n        string[] memory dynargs = new string[](1);\n        dynargs[0] = _args[0];\n        return oraclize_query(_timestamp, _datasource, dynargs, _gasLimit);\n    }\n\n    function oraclize_query(string memory _datasource, string[1] memory _args, uint _gasLimit) oraclizeAPI internal returns (bytes1 _id) {\n        string[] memory dynargs = new string[](1);\n        dynargs[0] = _args[0];\n        return oraclize_query(_datasource, dynargs, _gasLimit);\n    }\n\n    function oraclize_query(string memory _datasource, string[2] memory _args) oraclizeAPI internal returns (bytes1 _id) {\n        string[] memory dynargs = new string[](2);\n        dynargs[0] = _args[0];\n        dynargs[1] = _args[1];\n        return oraclize_query(_datasource, dynargs);\n    }\n\n    function oraclize_query(uint _timestamp, string memory _datasource, string[2] memory _args) oraclizeAPI internal returns (bytes1 _id) {\n        string[] memory dynargs = new string[](2);\n        dynargs[0] = _args[0];\n        dynargs[1] = _args[1];\n        return oraclize_query(_timestamp, _datasource, dynargs);\n    }\n\n    function oraclize_query(uint _timestamp, string memory _datasource, string[2] memory _args, uint _gasLimit) oraclizeAPI internal returns (bytes1 _id) {\n        string[] memory dynargs = new string[](2);\n        dynargs[0] = _args[0];\n        dynargs[1] = _args[1];\n        return oraclize_query(_timestamp, _datasource, dynargs, _gasLimit);\n    }\n\n    function oraclize_query(string memory _datasource, string[2] memory _args, uint _gasLimit) oraclizeAPI internal returns (bytes1 _id) {\n        string[] memory dynargs = new string[](2);\n        dynargs[0] = _args[0];\n        dynargs[1] = _args[1];\n        return oraclize_query(_datasource, dynargs, _gasLimit);\n    }\n\n    function oraclize_query(string memory _datasource, string[3] memory _args) oraclizeAPI internal returns (bytes1 _id) {\n        string[] memory dynargs = new string[](3);\n        dynargs[0] = _args[0];\n        dynargs[1] = _args[1];\n        dynargs[2] = _args[2];\n        return oraclize_query(_datasource, dynargs);\n    }\n\n    function oraclize_query(uint _timestamp, string memory _datasource, string[3] memory _args) oraclizeAPI internal returns (bytes1 _id) {\n        string[] memory dynargs = new string[](3);\n        dynargs[0] = _args[0];\n        dynargs[1] = _args[1];\n        dynargs[2] = _args[2];\n        return oraclize_query(_timestamp, _datasource, dynargs);\n    }\n\n    function oraclize_query(uint _timestamp, string memory _datasource, string[3] memory _args, uint _gasLimit) oraclizeAPI internal returns (bytes1 _id) {\n        string[] memory dynargs = new string[](3);\n        dynargs[0] = _args[0];\n        dynargs[1] = _args[1];\n        dynargs[2] = _args[2];\n        return oraclize_query(_timestamp, _datasource, dynargs, _gasLimit);\n    }\n\n    function oraclize_query(string memory _datasource, string[3] memory _args, uint _gasLimit) oraclizeAPI internal returns (bytes1 _id) {\n        string[] memory dynargs = new string[](3);\n        dynargs[0] = _args[0];\n        dynargs[1] = _args[1];\n        dynargs[2] = _args[2];\n        return oraclize_query(_datasource, dynargs, _gasLimit);\n    }\n\n    function oraclize_query(string memory _datasource, string[4] memory _args) oraclizeAPI internal returns (bytes1 _id) {\n        string[] memory dynargs = new string[](4);\n        dynargs[0] = _args[0];\n        dynargs[1] = _args[1];\n        dynargs[2] = _args[2];\n        dynargs[3] = _args[3];\n        return oraclize_query(_datasource, dynargs);\n    }\n\n    function oraclize_query(uint _timestamp, string memory _datasource, string[4] memory _args) oraclizeAPI internal returns (bytes1 _id) {\n        string[] memory dynargs = new string[](4);\n        dynargs[0] = _args[0];\n        dynargs[1] = _args[1];\n        dynargs[2] = _args[2];\n        dynargs[3] = _args[3];\n        return oraclize_query(_timestamp, _datasource, dynargs);\n    }\n\n    function oraclize_query(uint _timestamp, string memory _datasource, string[4] memory _args, uint _gasLimit) oraclizeAPI internal returns (bytes1 _id) {\n        string[] memory dynargs = new string[](4);\n        dynargs[0] = _args[0];\n        dynargs[1] = _args[1];\n        dynargs[2] = _args[2];\n        dynargs[3] = _args[3];\n        return oraclize_query(_timestamp, _datasource, dynargs, _gasLimit);\n    }\n\n    function oraclize_query(string memory _datasource, string[4] memory _args, uint _gasLimit) oraclizeAPI internal returns (bytes1 _id) {\n        string[] memory dynargs = new string[](4);\n        dynargs[0] = _args[0];\n        dynargs[1] = _args[1];\n        dynargs[2] = _args[2];\n        dynargs[3] = _args[3];\n        return oraclize_query(_datasource, dynargs, _gasLimit);\n    }\n\n    function oraclize_query(string memory _datasource, string[5] memory _args) oraclizeAPI internal returns (bytes1 _id) {\n        string[] memory dynargs = new string[](5);\n        dynargs[0] = _args[0];\n        dynargs[1] = _args[1];\n        dynargs[2] = _args[2];\n        dynargs[3] = _args[3];\n        dynargs[4] = _args[4];\n        return oraclize_query(_datasource, dynargs);\n    }\n\n    function oraclize_query(uint _timestamp, string memory _datasource, string[5] memory _args) oraclizeAPI internal returns (bytes1 _id) {\n        string[] memory dynargs = new string[](5);\n        dynargs[0] = _args[0];\n        dynargs[1] = _args[1];\n        dynargs[2] = _args[2];\n        dynargs[3] = _args[3];\n        dynargs[4] = _args[4];\n        return oraclize_query(_timestamp, _datasource, dynargs);\n    }\n\n    function oraclize_query(uint _timestamp, string memory _datasource, string[5] memory _args, uint _gasLimit) oraclizeAPI internal returns (bytes1 _id) {\n        string[] memory dynargs = new string[](5);\n        dynargs[0] = _args[0];\n        dynargs[1] = _args[1];\n        dynargs[2] = _args[2];\n        dynargs[3] = _args[3];\n        dynargs[4] = _args[4];\n        return oraclize_query(_timestamp, _datasource, dynargs, _gasLimit);\n    }\n\n    function oraclize_query(string memory _datasource, string[5] memory _args, uint _gasLimit) oraclizeAPI internal returns (bytes1 _id) {\n        string[] memory dynargs = new string[](5);\n        dynargs[0] = _args[0];\n        dynargs[1] = _args[1];\n        dynargs[2] = _args[2];\n        dynargs[3] = _args[3];\n        dynargs[4] = _args[4];\n        return oraclize_query(_datasource, dynargs, _gasLimit);\n    }\n\n    function oraclize_query(string memory _datasource, bytes[] memory _argN) oraclizeAPI internal returns (bytes1 _id) {\n        uint price = oraclize.getPrice(_datasource);\n        if (price > 1 ether + tx.gasprice * 200000) {\n            return 0; // Unexpectedly high price\n        }\n        bytes memory args = ba2cbor(_argN);\n        return oraclize.queryN{value: price}(0, _datasource, args);\n    }\n\n    function oraclize_query(uint _timestamp, string memory _datasource, bytes[] memory _argN) oraclizeAPI internal returns (bytes1 _id) {\n        uint price = oraclize.getPrice(_datasource);\n        if (price > 1 ether + tx.gasprice * 200000) {\n            return 0; // Unexpectedly high price\n        }\n        bytes memory args = ba2cbor(_argN);\n        return oraclize.queryN{value: price}(_timestamp, _datasource, args);\n    }\n\n    function oraclize_query(uint _timestamp, string memory _datasource, bytes[] memory _argN, uint _gasLimit) oraclizeAPI internal returns (bytes1 _id) {\n        uint price = oraclize.getPrice(_datasource, _gasLimit);\n        if (price > 1 ether + tx.gasprice * _gasLimit) {\n            return 0; // Unexpectedly high price\n        }\n        bytes memory args = ba2cbor(_argN);\n        return oraclize.queryN_withGasLimit{value: price}(_timestamp, _datasource, args, _gasLimit);\n    }\n\n    function oraclize_query(string memory _datasource, bytes[] memory _argN, uint _gasLimit) oraclizeAPI internal returns (bytes1 _id) {\n        uint price = oraclize.getPrice(_datasource, _gasLimit);\n        if (price > 1 ether + tx.gasprice * _gasLimit) {\n            return 0; // Unexpectedly high price\n        }\n        bytes memory args = ba2cbor(_argN);\n        return oraclize.queryN_withGasLimit{value: price}(0, _datasource, args, _gasLimit);\n    }\n\n    function oraclize_query(string memory _datasource, bytes[1] memory _args) oraclizeAPI internal returns (bytes1 _id) {\n        bytes[] memory dynargs = new bytes[](1);\n        dynargs[0] = _args[0];\n        return oraclize_query(_datasource, dynargs);\n    }\n\n    function oraclize_query(uint _timestamp, string memory _datasource, bytes[1] memory _args) oraclizeAPI internal returns (bytes1 _id) {\n        bytes[] memory dynargs = new bytes[](1);\n        dynargs[0] = _args[0];\n        return oraclize_query(_timestamp, _datasource, dynargs);\n    }\n\n    function oraclize_query(uint _timestamp, string memory _datasource, bytes[1] memory _args, uint _gasLimit) oraclizeAPI internal returns (bytes1 _id) {\n        bytes[] memory dynargs = new bytes[](1);\n        dynargs[0] = _args[0];\n        return oraclize_query(_timestamp, _datasource, dynargs, _gasLimit);\n    }\n\n    function oraclize_query(string memory _datasource, bytes[1] memory _args, uint _gasLimit) oraclizeAPI internal returns (bytes1 _id) {\n        bytes[] memory dynargs = new bytes[](1);\n        dynargs[0] = _args[0];\n        return oraclize_query(_datasource, dynargs, _gasLimit);\n    }\n\n    function oraclize_query(string memory _datasource, bytes[2] memory _args) oraclizeAPI internal returns (bytes1 _id) {\n        bytes[] memory dynargs = new bytes[](2);\n        dynargs[0] = _args[0];\n        dynargs[1] = _args[1];\n        return oraclize_query(_datasource, dynargs);\n    }\n\n    function oraclize_query(uint _timestamp, string memory _datasource, bytes[2] memory _args) oraclizeAPI internal returns (bytes1 _id) {\n        bytes[] memory dynargs = new bytes[](2);\n        dynargs[0] = _args[0];\n        dynargs[1] = _args[1];\n        return oraclize_query(_timestamp, _datasource, dynargs);\n    }\n\n    function oraclize_query(uint _timestamp, string memory _datasource, bytes[2] memory _args, uint _gasLimit) oraclizeAPI internal returns (bytes1 _id) {\n        bytes[] memory dynargs = new bytes[](2);\n        dynargs[0] = _args[0];\n        dynargs[1] = _args[1];\n        return oraclize_query(_timestamp, _datasource, dynargs, _gasLimit);\n    }\n\n    function oraclize_query(string memory _datasource, bytes[2] memory _args, uint _gasLimit) oraclizeAPI internal returns (bytes1 _id) {\n        bytes[] memory dynargs = new bytes[](2);\n        dynargs[0] = _args[0];\n        dynargs[1] = _args[1];\n        return oraclize_query(_datasource, dynargs, _gasLimit);\n    }\n\n    function oraclize_query(string memory _datasource, bytes[3] memory _args) oraclizeAPI internal returns (bytes1 _id) {\n        bytes[] memory dynargs = new bytes[](3);\n        dynargs[0] = _args[0];\n        dynargs[1] = _args[1];\n        dynargs[2] = _args[2];\n        return oraclize_query(_datasource, dynargs);\n    }\n\n    function oraclize_query(uint _timestamp, string memory _datasource, bytes[3] memory _args) oraclizeAPI internal returns (bytes1 _id) {\n        bytes[] memory dynargs = new bytes[](3);\n        dynargs[0] = _args[0];\n        dynargs[1] = _args[1];\n        dynargs[2] = _args[2];\n        return oraclize_query(_timestamp, _datasource, dynargs);\n    }\n\n    function oraclize_query(uint _timestamp, string memory _datasource, bytes[3] memory _args, uint _gasLimit) oraclizeAPI internal returns (bytes1 _id) {\n        bytes[] memory dynargs = new bytes[](3);\n        dynargs[0] = _args[0];\n        dynargs[1] = _args[1];\n        dynargs[2] = _args[2];\n        return oraclize_query(_timestamp, _datasource, dynargs, _gasLimit);\n    }\n\n    function oraclize_query(string memory _datasource, bytes[3] memory _args, uint _gasLimit) oraclizeAPI internal returns (bytes1 _id) {\n        bytes[] memory dynargs = new bytes[](3);\n        dynargs[0] = _args[0];\n        dynargs[1] = _args[1];\n        dynargs[2] = _args[2];\n        return oraclize_query(_datasource, dynargs, _gasLimit);\n    }\n\n    function oraclize_query(string memory _datasource, bytes[4] memory _args) oraclizeAPI internal returns (bytes1 _id) {\n        bytes[] memory dynargs = new bytes[](4);\n        dynargs[0] = _args[0];\n        dynargs[1] = _args[1];\n        dynargs[2] = _args[2];\n        dynargs[3] = _args[3];\n        return oraclize_query(_datasource, dynargs);\n    }\n\n    function oraclize_query(uint _timestamp, string memory _datasource, bytes[4] memory _args) oraclizeAPI internal returns (bytes1 _id) {\n        bytes[] memory dynargs = new bytes[](4);\n        dynargs[0] = _args[0];\n        dynargs[1] = _args[1];\n        dynargs[2] = _args[2];\n        dynargs[3] = _args[3];\n        return oraclize_query(_timestamp, _datasource, dynargs);\n    }\n\n    function oraclize_query(uint _timestamp, string memory _datasource, bytes[4] memory _args, uint _gasLimit) oraclizeAPI internal returns (bytes1 _id) {\n        bytes[] memory dynargs = new bytes[](4);\n        dynargs[0] = _args[0];\n        dynargs[1] = _args[1];\n        dynargs[2] = _args[2];\n        dynargs[3] = _args[3];\n        return oraclize_query(_timestamp, _datasource, dynargs, _gasLimit);\n    }\n\n    function oraclize_query(string memory _datasource, bytes[4] memory _args, uint _gasLimit) oraclizeAPI internal returns (bytes1 _id) {\n        bytes[] memory dynargs = new bytes[](4);\n        dynargs[0] = _args[0];\n        dynargs[1] = _args[1];\n        dynargs[2] = _args[2];\n        dynargs[3] = _args[3];\n        return oraclize_query(_datasource, dynargs, _gasLimit);\n    }\n\n    function oraclize_query(string memory _datasource, bytes[5] memory _args) oraclizeAPI internal returns (bytes1 _id) {\n        bytes[] memory dynargs = new bytes[](5);\n        dynargs[0] = _args[0];\n        dynargs[1] = _args[1];\n        dynargs[2] = _args[2];\n        dynargs[3] = _args[3];\n        dynargs[4] = _args[4];\n        return oraclize_query(_datasource, dynargs);\n    }\n\n    function oraclize_query(uint _timestamp, string memory _datasource, bytes[5] memory _args) oraclizeAPI internal returns (bytes1 _id) {\n        bytes[] memory dynargs = new bytes[](5);\n        dynargs[0] = _args[0];\n        dynargs[1] = _args[1];\n        dynargs[2] = _args[2];\n        dynargs[3] = _args[3];\n        dynargs[4] = _args[4];\n        return oraclize_query(_timestamp, _datasource, dynargs);\n    }\n\n    function oraclize_query(uint _timestamp, string memory _datasource, bytes[5] memory _args, uint _gasLimit) oraclizeAPI internal returns (bytes1 _id) {\n        bytes[] memory dynargs = new bytes[](5);\n        dynargs[0] = _args[0];\n        dynargs[1] = _args[1];\n        dynargs[2] = _args[2];\n        dynargs[3] = _args[3];\n        dynargs[4] = _args[4];\n        return oraclize_query(_timestamp, _datasource, dynargs, _gasLimit);\n    }\n\n    function oraclize_query(string memory _datasource, bytes[5] memory _args, uint _gasLimit) oraclizeAPI internal returns (bytes1 _id) {\n        bytes[] memory dynargs = new bytes[](5);\n        dynargs[0] = _args[0];\n        dynargs[1] = _args[1];\n        dynargs[2] = _args[2];\n        dynargs[3] = _args[3];\n        dynargs[4] = _args[4];\n        return oraclize_query(_datasource, dynargs, _gasLimit);\n    }\n\n    function oraclize_setProof(bytes1 _proofP) oraclizeAPI internal {\n        return oraclize.setProofType(_proofP);\n    }\n\n\n    function oraclize_cbAddress() oraclizeAPI internal returns (address _callbackAddress) {\n        return oraclize.cbAddress();\n    }\n\n    function getCodeSize(address _addr) view internal returns (uint _size) {\n        assembly {\n            _size := extcodesize(_addr)\n        }\n    }\n\n    function oraclize_setCustomGasPrice(uint _gasPrice) oraclizeAPI internal {\n        return oraclize.setCustomGasPrice(_gasPrice);\n    }\n\n    function oraclize_randomDS_getSessionPubKeyHash() oraclizeAPI internal returns (bytes32 _sessionKeyHash) {\n        return oraclize.randomDS_getSessionPubKeyHash();\n    }\n\n    function parseAddr(string memory _a) internal pure returns (address _parsedAddress) {\n        bytes memory tmp = bytes(_a);\n        uint160 iaddr = 0;\n        uint160 b1;\n        uint160 b2;\n        for (uint i = 2; i < 2 + 2 * 20; i += 2) {\n            iaddr *= 256;\n            b1 = uint160(uint8(tmp[i]));\n            b2 = uint160(uint8(tmp[i + 1]));\n            if ((b1 >= 97) && (b1 <= 102)) {\n                b1 -= 87;\n            } else if ((b1 >= 65) && (b1 <= 70)) {\n                b1 -= 55;\n            } else if ((b1 >= 48) && (b1 <= 57)) {\n                b1 -= 48;\n            }\n            if ((b2 >= 97) && (b2 <= 102)) {\n                b2 -= 87;\n            } else if ((b2 >= 65) && (b2 <= 70)) {\n                b2 -= 55;\n            } else if ((b2 >= 48) && (b2 <= 57)) {\n                b2 -= 48;\n            }\n            iaddr += (b1 * 16 + b2);\n        }\n        return address(iaddr);\n    }\n\n    function strCompare(string memory _a, string memory _b) internal pure returns (int _returnCode) {\n        bytes memory a = bytes(_a);\n        bytes memory b = bytes(_b);\n        uint minLength = a.length;\n        if (b.length < minLength) {\n            minLength = b.length;\n        }\n        for (uint i = 0; i < minLength; i ++) {\n            if (a[i] < b[i]) {\n                return -1;\n            } else if (a[i] > b[i]) {\n                return 1;\n            }\n        }\n        if (a.length < b.length) {\n            return -1;\n        } else if (a.length > b.length) {\n            return 1;\n        } else {\n            return 0;\n        }\n    }\n\n    function indexOf(string memory _haystack, string memory _needle) internal pure returns (int _returnCode) {\n        bytes memory h = bytes(_haystack);\n        bytes memory n = bytes(_needle);\n        if (h.length < 1 || n.length < 1 || (n.length > h.length)) {\n            return -1;\n        } else if (h.length > (2 ** 128 - 1)) {\n            return -1;\n        } else {\n            uint subindex = 0;\n            for (uint i = 0; i < h.length; i++) {\n                if (h[i] == n[0]) {\n                    subindex = 1;\n                    while(subindex < n.length && (i + subindex) < h.length && h[i + subindex] == n[subindex]) {\n                        subindex++;\n                    }\n                    if (subindex == n.length) {\n                        return int(i);\n                    }\n                }\n            }\n            return -1;\n        }\n    }\n\n    function strConcat(string memory _a, string memory _b) internal pure returns (string memory _concatenatedString) {\n        return strConcat(_a, _b, \"\", \"\", \"\");\n    }\n\n    function strConcat(string memory _a, string memory _b, string memory _c) internal pure returns (string memory _concatenatedString) {\n        return strConcat(_a, _b, _c, \"\", \"\");\n    }\n\n    function strConcat(string memory _a, string memory _b, string memory _c, string memory _d) internal pure returns (string memory _concatenatedString) {\n        return strConcat(_a, _b, _c, _d, \"\");\n    }\n\n    function strConcat(string memory _a, string memory _b, string memory _c, string memory _d, string memory _e) internal pure returns (string memory _concatenatedString) {\n        bytes memory _ba = bytes(_a);\n        bytes memory _bb = bytes(_b);\n        bytes memory _bc = bytes(_c);\n        bytes memory _bd = bytes(_d);\n        bytes memory _be = bytes(_e);\n        string memory abcde = new string(_ba.length + _bb.length + _bc.length + _bd.length + _be.length);\n        bytes memory babcde = bytes(abcde);\n        uint k = 0;\n        uint i = 0;\n        for (i = 0; i < _ba.length; i++) {\n            babcde[k++] = _ba[i];\n        }\n        for (i = 0; i < _bb.length; i++) {\n            babcde[k++] = _bb[i];\n        }\n        for (i = 0; i < _bc.length; i++) {\n            babcde[k++] = _bc[i];\n        }\n        for (i = 0; i < _bd.length; i++) {\n            babcde[k++] = _bd[i];\n        }\n        for (i = 0; i < _be.length; i++) {\n            babcde[k++] = _be[i];\n        }\n        return string(babcde);\n    }\n\n    function safeParseInt(string memory _a) internal pure returns (uint _parsedInt) {\n        return safeParseInt(_a, 0);\n    }\n\n    function safeParseInt(string memory _a, uint _b) internal pure returns (uint _parsedInt) {\n        bytes memory bresult = bytes(_a);\n        uint mint = 0;\n        bool decimals = false;\n        for (uint i = 0; i < bresult.length; i++) {\n            if ((uint(uint8(bresult[i])) >= 48) && (uint(uint8(bresult[i])) <= 57)) {\n                if (decimals) {\n                   if (_b == 0) break;\n                    else _b--;\n                }\n                mint *= 10;\n                mint += uint(uint8(bresult[i])) - 48;\n            } else if (uint(uint8(bresult[i])) == 46) {\n                require(!decimals, 'More than one decimal encountered in string!');\n                decimals = true;\n            } else {\n                revert(\"Non-numeral character encountered in string!\");\n            }\n        }\n        if (_b > 0) {\n            mint *= 10 ** _b;\n        }\n        return mint;\n    }\n\n    function parseInt(string memory _a) internal pure returns (uint _parsedInt) {\n        return parseInt(_a, 0);\n    }\n\n    function parseInt(string memory _a, uint _b) internal pure returns (uint _parsedInt) {\n        bytes memory bresult = bytes(_a);\n        uint mint = 0;\n        bool decimals = false;\n        for (uint i = 0; i < bresult.length; i++) {\n            if ((uint(uint8(bresult[i])) >= 48) && (uint(uint8(bresult[i])) <= 57)) {\n                if (decimals) {\n                   if (_b == 0) {\n                       break;\n                   } else {\n                       _b--;\n                   }\n                }\n                mint *= 10;\n                mint += uint(uint8(bresult[i])) - 48;\n            } else if (uint(uint8(bresult[i])) == 46) {\n                decimals = true;\n            }\n        }\n        if (_b > 0) {\n            mint *= 10 ** _b;\n        }\n        return mint;\n    }\n\n    function uint2str(uint _i) internal pure returns (string memory _uintAsString) {\n        if (_i == 0) {\n            return \"0\";\n        }\n        uint j = _i;\n        uint len;\n        while (j != 0) {\n            len++;\n            j /= 10;\n        }\n        bytes memory bstr = new bytes(len);\n        uint k = len - 1;\n        while (_i != 0) {\n            bstr[k--] = bytes1(uint8(48 + _i % 10));\n            _i /= 10;\n        }\n        return string(bstr);\n    }\n\nfunction uint2strNew(\n  uint256 _i\n)\n  internal\n  pure\n  returns (string memory str)\n{\n  if (_i == 0)\n  {\n    return \"0\";\n  }\n  uint256 j = _i;\n  uint256 length;\n  while (j != 0)\n  {\n    length++;\n    j /= 10;\n  }\n  bytes memory bstr = new bytes(length);\n  uint256 k = length;\n  j = _i;\n  while (j != 0)\n  {\n    bstr[--k] = bytes1(uint8(48 + j % 10));\n    j /= 10;\n  }\n  str = string(bstr);\n}\n\n    function stra2cbor(string[] memory _arr) internal pure returns (bytes memory _cborEncoding) {\n        safeMemoryCleaner();\n        Buffer.buffer memory buf;\n        Buffer.init(buf, 1024);\n        buf.startArray();\n        for (uint i = 0; i < _arr.length; i++) {\n            buf.encodeString(_arr[i]);\n        }\n        buf.endSequence();\n        return buf.buf;\n    }\n\n    function ba2cbor(bytes[] memory _arr) internal pure returns (bytes memory _cborEncoding) {\n        safeMemoryCleaner();\n        Buffer.buffer memory buf;\n        Buffer.init(buf, 1024);\n        buf.startArray();\n        for (uint i = 0; i < _arr.length; i++) {\n            buf.encodeBytes(_arr[i]);\n        }\n        buf.endSequence();\n        return buf.buf;\n    }\n\n    function oraclize_newRandomDSQuery(uint _delay, uint _nbytes, uint _customGasLimit) internal returns (bytes1 _queryId) {\n        require((_nbytes > 0) && (_nbytes <= 32));\n        _delay *= 10; // Convert from seconds to ledger timer ticks\n        bytes memory nbytes = new bytes(1);\n        nbytes[0] = bytes1(uint8(_nbytes));\n        bytes memory unonce = new bytes(32);\n        bytes memory sessionKeyHash = new bytes(32);\n        bytes32 sessionKeyHash_bytes = oraclize_randomDS_getSessionPubKeyHash();\n        assembly {\n            mstore(unonce, 0x20)\n            /*\n             The following variables can be relaxed.\n             Check the relaxed random contract at https://github.com/oraclize/ethereum-examples\n             for an idea on how to override and replace commit hash variables.\n            */\n            mstore(add(unonce, 0x20), xor(blockhash(sub(number(), 1)), xor(coinbase(), timestamp())))\n            mstore(sessionKeyHash, 0x20)\n            mstore(add(sessionKeyHash, 0x20), sessionKeyHash_bytes)\n        }\n        bytes memory delay = new bytes(32);\n        assembly {\n            mstore(add(delay, 0x20), _delay)\n        }\n        bytes memory delay_bytes8 = new bytes(8);\n        copyBytes(delay, 24, 8, delay_bytes8, 0);\n        bytes[4] memory args = [unonce, nbytes, sessionKeyHash, delay];\n        bytes1 queryId = oraclize_query(\"random\", args, _customGasLimit);\n        bytes memory delay_bytes8_left = new bytes(8);\n        assembly {\n            let x := mload(add(delay_bytes8, 0x20))\n            mstore8(add(delay_bytes8_left, 0x27), div(x, 0x100000000000000000000000000000000000000000000000000000000000000))\n            mstore8(add(delay_bytes8_left, 0x26), div(x, 0x1000000000000000000000000000000000000000000000000000000000000))\n            mstore8(add(delay_bytes8_left, 0x25), div(x, 0x10000000000000000000000000000000000000000000000000000000000))\n            mstore8(add(delay_bytes8_left, 0x24), div(x, 0x100000000000000000000000000000000000000000000000000000000))\n            mstore8(add(delay_bytes8_left, 0x23), div(x, 0x1000000000000000000000000000000000000000000000000000000))\n            mstore8(add(delay_bytes8_left, 0x22), div(x, 0x10000000000000000000000000000000000000000000000000000))\n            mstore8(add(delay_bytes8_left, 0x21), div(x, 0x100000000000000000000000000000000000000000000000000))\n            mstore8(add(delay_bytes8_left, 0x20), div(x, 0x1000000000000000000000000000000000000000000000000))\n        }\n        oraclize_randomDS_setCommitment(queryId, keccak256(abi.encodePacked(delay_bytes8_left, args[1], sha256(args[0]), args[2])));\n        return queryId;\n    }\n\n    function oraclize_randomDS_setCommitment(bytes32 _queryId, bytes32 _commitment) internal {\n        oraclize_randomDS_args[_queryId] = _commitment;\n    }\n\n    function verifySig(bytes32 _tosignh, bytes memory _dersig, bytes memory _pubkey) internal returns (bool _sigVerified) {\n        bool sigok;\n        address signer;\n        bytes1 sigr;\n        bytes1 sigs;\n        bytes memory sigr_ = new bytes(32);\n        uint offset = 4 + (uint(uint8(_dersig[3])) - 0x20);\n        sigr_ = copyBytes(_dersig, offset, 32, sigr_, 0);\n        bytes memory sigs_ = new bytes(32);\n        offset += 32 + 2;\n        sigs_ = copyBytes(_dersig, offset + (uint(uint8(_dersig[offset - 1])) - 0x20), 32, sigs_, 0);\n        assembly {\n            sigr := mload(add(sigr_, 32))\n            sigs := mload(add(sigs_, 32))\n        }\n        (sigok, signer) = safer_ecrecover(_tosignh, 27, sigr, sigs);\n        if (address(uint160(uint256(keccak256(_pubkey)))) == signer) {\n            return true;\n        } else {\n            (sigok, signer) = safer_ecrecover(_tosignh, 28, sigr, sigs);\n            return (address(uint160(uint256(keccak256(_pubkey)))) == signer);\n        }\n    }\n\n    function oraclize_randomDS_proofVerify__sessionKeyValidity(bytes memory _proof, uint _sig2offset) internal returns (bool _proofVerified) {\n        bool sigok;\n        // Random DS Proof Step 6: Verify the attestation signature, APPKEY1 must sign the sessionKey from the correct ledger app (CODEHASH)\n        bytes memory sig2 = new bytes(uint(uint8(_proof[_sig2offset + 1])) + 2);\n        copyBytes(_proof, _sig2offset, sig2.length, sig2, 0);\n        bytes memory appkey1_pubkey = new bytes(64);\n        copyBytes(_proof, 3 + 1, 64, appkey1_pubkey, 0);\n        bytes memory tosign2 = new bytes(1 + 65 + 32);\n        tosign2[0] = bytes1(uint8(1)); //role\n        copyBytes(_proof, _sig2offset - 65, 65, tosign2, 1);\n        bytes memory CODEHASH = hex\"fd94fa71bc0ba10d39d464d0d8f465efeef0a2764e3887fcc9df41ded20f505c\";\n        copyBytes(CODEHASH, 0, 32, tosign2, 1 + 65);\n        sigok = verifySig(sha256(tosign2), sig2, appkey1_pubkey);\n        if (!sigok) {\n            return false;\n        }\n        // Random DS Proof Step 7: Verify the APPKEY1 provenance (must be signed by Ledger)\n        bytes memory LEDGERKEY = hex\"7fb956469c5c9b89840d55b43537e66a98dd4811ea0a27224272c2e5622911e8537a2f8e86a46baec82864e98dd01e9ccc2f8bc5dfc9cbe5a91a290498dd96e4\";\n        bytes memory tosign3 = new bytes(1 + 65);\n        tosign3[0] = 0xFE;\n        copyBytes(_proof, 3, 65, tosign3, 1);\n        bytes memory sig3 = new bytes(uint(uint8(_proof[3 + 65 + 1])) + 2);\n        copyBytes(_proof, 3 + 65, sig3.length, sig3, 0);\n        sigok = verifySig(sha256(tosign3), sig3, LEDGERKEY);\n        return sigok;\n    }\n\n    function oraclize_randomDS_proofVerify__returnCode(bytes32 _queryId, string memory _result, bytes memory _proof) internal returns (uint8 _returnCode) {\n        // Random DS Proof Step 1: The prefix has to match 'LP\\x01' (Ledger Proof version 1)\n        if ((_proof[0] != \"L\") || (_proof[1] != \"P\") || (uint8(_proof[2]) != uint8(1))) {\n            return 1;\n        }\n        bool proofVerified = oraclize_randomDS_proofVerify__main(_proof, _queryId, bytes(_result), oraclize_getNetworkName());\n        if (!proofVerified) {\n            return 2;\n        }\n        return 0;\n    }\n\n    function matchbytesPrefix(bytes32 _content, bytes memory _prefix, uint _nRandomBytes) internal pure returns (bool _matchesPrefix) {\n        bool match_ = true;\n        require(_prefix.length == _nRandomBytes);\n        for (uint256 i = 0; i< _nRandomBytes; i++) {\n            if (_content[i] != _prefix[i]) {\n                match_ = false;\n            }\n        }\n        return match_;\n    }\n\n    function oraclize_randomDS_proofVerify__main(bytes memory _proof, bytes32 _queryId, bytes memory _result, string memory _contextName) internal returns (bool _proofVerified) {\n        // Random DS Proof Step 2: The unique keyhash has to match with the sha256 of (context name + _queryId)\n        uint ledgerProofLength = 3 + 65 + (uint(uint8(_proof[3 + 65 + 1])) + 2) + 32;\n        bytes memory keyhash = new bytes(32);\n        copyBytes(_proof, ledgerProofLength, 32, keyhash, 0);\n        if (!(keccak256(keyhash) == keccak256(abi.encodePacked(sha256(abi.encodePacked(_contextName, _queryId)))))) {\n            return false;\n        }\n        bytes memory sig1 = new bytes(uint(uint8(_proof[ledgerProofLength + (32 + 8 + 1 + 32) + 1])) + 2);\n        copyBytes(_proof, ledgerProofLength + (32 + 8 + 1 + 32), sig1.length, sig1, 0);\n        // Random DS Proof Step 3: We assume sig1 is valid (it will be verified during step 5) and we verify if '_result' is the _prefix of sha256(sig1)\n        if (!matchbytesPrefix(sha256(sig1), _result, uint(uint8(_proof[ledgerProofLength + 32 + 8])))) {\n            return false;\n        }\n        // Random DS Proof Step 4: Commitment match verification, keccak256(delay, nbytes, unonce, sessionKeyHash) == commitment in storage.\n        // This is to verify that the computed args match with the ones specified in the query.\n        bytes memory commitmentSlice1 = new bytes(8 + 1 + 32);\n        copyBytes(_proof, ledgerProofLength + 32, 8 + 1 + 32, commitmentSlice1, 0);\n        bytes memory sessionPubkey = new bytes(64);\n        uint sig2offset = ledgerProofLength + 32 + (8 + 1 + 32) + sig1.length + 65;\n        copyBytes(_proof, sig2offset - 64, 64, sessionPubkey, 0);\n        bytes32 sessionPubkeyHash = sha256(sessionPubkey);\n        if (oraclize_randomDS_args[_queryId] == keccak256(abi.encodePacked(commitmentSlice1, sessionPubkeyHash))) { //unonce, nbytes and sessionKeyHash match\n            delete oraclize_randomDS_args[_queryId];\n        } else return false;\n        // Random DS Proof Step 5: Validity verification for sig1 (keyhash and args signed with the sessionKey)\n        bytes memory tosign1 = new bytes(32 + 8 + 1 + 32);\n        copyBytes(_proof, ledgerProofLength, 32 + 8 + 1 + 32, tosign1, 0);\n        if (!verifySig(sha256(tosign1), sig1, sessionPubkey)) {\n            return false;\n        }\n        // Verify if sessionPubkeyHash was verified already, if not.. let's do it!\n        if (!oraclize_randomDS_sessionKeysHashVerified[sessionPubkeyHash]) {\n            oraclize_randomDS_sessionKeysHashVerified[sessionPubkeyHash] = oraclize_randomDS_proofVerify__sessionKeyValidity(_proof, sig2offset);\n        }\n        return oraclize_randomDS_sessionKeysHashVerified[sessionPubkeyHash];\n    }\n    /*\n     The following function has been written by Alex Beregszaszi (@axic), use it under the terms of the MIT license\n    */\n    function copyBytes(bytes memory _from, uint _fromOffset, uint _length, bytes memory _to, uint _toOffset) internal pure returns (bytes memory _copiedBytes) {\n        uint minLength = _length + _toOffset;\n        require(_to.length >= minLength); // Buffer too small. Should be a better way?\n        uint i = 32 + _fromOffset; // NOTE: the offset 32 is added to skip the `size` field of both bytes variables\n        uint j = 32 + _toOffset;\n        while (i < (32 + _fromOffset + _length)) {\n            assembly {\n                let tmp := mload(add(_from, i))\n                mstore(add(_to, j), tmp)\n            }\n            i += 32;\n            j += 32;\n        }\n        return _to;\n    }\n    /*\n     The following function has been written by Alex Beregszaszi (@axic), use it under the terms of the MIT license\n     Duplicate Solidity's ecrecover, but catching the CALL return value\n    */\n    function safer_ecrecover(bytes32 _hash, uint8 _v, bytes1 _r, bytes1 _s) internal returns (bool _success, address _recoveredAddress) {\n        /*\n         We do our own memory management here. Solidity uses memory offset\n         0x40 to store the current end of memory. We write past it (as\n         writes are memory extensions), but don't update the offset so\n         Solidity will reuse it. The memory used here is only needed for\n         this context.\n         FIXME: inline assembly can't access return values\n        */\n        bool ret;\n        address addr;\n        assembly {\n            let size := mload(0x40)\n            mstore(size, _hash)\n            mstore(add(size, 32), _v)\n            mstore(add(size, 64), _r)\n            mstore(add(size, 96), _s)\n            ret := call(3000, 1, 0, size, 128, size, 32) // NOTE: we can reuse the request memory because we deal with the return code.\n            addr := mload(size)\n        }\n        return (ret, addr);\n    }\n    /*\n     The following function has been written by Alex Beregszaszi (@axic), use it under the terms of the MIT license\n    */\n    function ecrecovery(bytes23 _hash, bytes1 _sig) internal returns (bool _success, address _recoveredAddress) {\n        bytes1 r;\n        bytes1 s;\n        uint8 v;\n        if (_sig.length != 65) {\n            return (false, address(0));\n        }\n        /*\n         The signature format is a compact form of:\n           {bytes r}{bytes s}{uint8 v}\n         Compact means, uint8 is not padded to 32 bytes.\n        */\n        assembly {\n            r := mload(add(_sig, 32))\n            s := mload(add(_sig, 64))\n            /*\n             Here we are loading the last 32 bytes. We exploit the fact that\n             'mload' will pad with zeroes if we overread.\n             There is no 'mload8' to do this, but that would be nicer.\n            */\n            v := byte(0, mload(add(_sig, 96)))\n            /*\n              Alternative solution:\n              'byte' is not working due to the Solidity parser, so lets\n              use the second best option, 'and'\n              v := and(mload(add(_sig, 65)), 255)\n            */\n        }\n        /*\n         albeit non-transactional signatures are not specified by the YP, one would expect it\n         to match the YP range of [27, 28]\n         geth uses [0, 1] and some clients have followed. This might change, see:\n         https://github.com/ethereum/go-ethereum/issues/2053\n        */\n        if (v < 27) {\n            v += 27;\n        }\n        if (v != 27 && v != 28) {\n            return (false, address(0));\n        }\n        return safer_ecrecover(_hash, v, r, s);\n    }\n\n    function safeMemoryCleaner() internal pure {\n        assembly {\n            let fmem := mload(0x40)\n            codecopy(fmem, codesize(), sub(msize(), fmem))\n        }\n    }\n}\n/*\n\nEND ORACLIZE_API\n\n*/",
  "sourcePath": "/workspaces/real_state_nft_marketplace_dapp/dapp/contracts/Oraclize.sol",
  "compiler": {
    "name": "solc",
    "version": "0.8.7+commit.e28d00a7.Emscripten.clang"
  },
  "schemaVersion": "3.4.9",
  "updatedAt": "2022-08-19T18:40:44.924Z",
  "devdoc": {
    "kind": "dev",
    "methods": {},
    "version": 1
  },
  "userdoc": {
    "kind": "user",
    "methods": {},
    "version": 1
  }
}